:020000022000DC
:1060000000000120756302005D6302005F6302000F
:106010006163020063630200656302000000000028
:1060200000000000000000000000000067630200A4
:1060300069630200000000006B6302006D630200F0
:106040006DC502006F63020009D502006F63020094
:106050006F6302006F63020005D402006F630200E9
:10606000A9F70200C1F70200D9F702006F6302002E
:106070006F6302006F6302006F6302006F630200D0
:106080006F630200A18E02006F6302006F63020063
:106090006F6302006F630200B54703006F63020085
:1060A0006F6302006F6302006F6302006F630200A0
:1060B0006F6302006F630200000000000000000038
:1060C0006F6302006F6302006F6302006F63020080
:1060D0006F6302006F6302006F6302000000000044
:1060E00000000000000000000000000000000000B0
:1060F00000000000000000000000000000000000A0
:10610000000000000000000000000000000000008F
:10611000000000000000000000000000000000007F
:10612000000000000000000000000000000000006F
:10613000000000000000000000000000000000005F
:10614000000000000000000000000000000000004F
:10615000000000000000000000000000000000003F
:10616000000000000000000000000000000000002F
:10617000000000000000000000000000000000001F
:10618000000000000000000000000000000000000F
:1061900000000000000000000000000000000000FF
:1061A00000000000000000000000000000000000EF
:1061B00000000000000000000000000000000000DF
:1061C00000000000000000000000000000000000CF
:1061D00000000000000000000000000000000000BF
:1061E00000000000000000000000000000000000AF
:1061F000000000000000000000000000000000009F
:10620000354936480A1A02D0072291438D4634494F
:1062100034480A1A06D00722914381F309880222E2
:1062200082F3148830483149314A00F044F831484B
:106230003149324A00F03FF831483249324A00F0E1
:106240003AF832483249334A00F035F83248334997
:10625000334A00F030F833483349344A00F02BF821
:1062600033483449344A00F026F83448344900228F
:1062700000F02CF833483449002200F027F8334866
:106280003349091A082902DB002202604160314AC1
:1062900090471F481F49884205D00268043003B464
:1062A000904703BCF7E700208646EC46002000211B
:1062B000294A9047FEE7884207D0521A05D0037852
:1062C00001300B700131013AF9D17047884202D098
:1062D00002700130FAE770470000012000E0002062
:1062E000000001200000012090770300D82A002040
:1062F000E42B0020D0630200D0630200E0560300CC
:1063000090770300D82A0020D82A0020F4570300F1
:10631000F4570300F4570300F4570300F457030045
:10632000F4570300F4570300F45703009077030079
:106330009C780300E42B0020E42B0020E42B0020B9
:10634000EC3E0020EC3E0020EC3E0020EC3E002025
:10635000EC5E00209D630200B9110300FEE7FEE73A
:10636000FEE7FEE7FEE7FEE7FEE7FEE7FEE7FEE705
:1063700000F002B8FFF7FCBF0F484FF00701884359
:1063800085460E4880470E48016841F4700101605F
:10639000BFF34F8FBFF36F8FFFF732BF09480A4932
:1063A0000A4A884207D0521A05D0037801300B7090
:1063B0000131013AF9D1704700000120E9B602002D
:1063C00088ED00E0F4570300D82A0020D82A0020E6
:1063D00000B585B00190019B002B0AD0074B43F01C
:1063E00001030393019B9B010293039B029898472F
:1063F00000E000BF05B05DF804FB00BF00580300DB
:1064000000B583B00190019B002B0AD04FF47A7045
:10641000FFF7DEFF019B013B0193019B002BF5D1B0
:1064200000E000BF03B05DF804FB08B50BF096F880
:1064300000BF08BD00B589B0039002910192019B95
:10644000002B33D00023079303230693029A079B64
:106450001344019A194600200BF030F80590079A72
:10646000059B13440793019A059BD31A0193059B3F
:10647000002B13D10F4B1B7883F00103DBB2002BF1
:1064800013D10120FFF7BCFF069B013B0693069B3F
:10649000002B03D1074B00221A7007E0054B0122A5
:1064A0001A70019B002BD1D100E000BF00BF09B0E2
:1064B0005DF804FBE42B002000B585B00390029149
:1064C000054B00934023054A0299039800F012F807
:1064D00000BF05B05DF804FB35640200E82B002026
:1064E00082B0019000BF02B0704782B0019000BF3F
:1064F00002B0704700B5A1B00590049103920293D9
:10650000049803F045FC039B1593029B169300230C
:10651000179300238DF8603000231993229B1A9360
:1065200000231F930FA91F9B0822049803F00AFD64
:1065300008231F93119B1293BDF84030ADF84C30E7
:10654000BDF84230ADF84E3000238DF851309DF843
:106550003C3003F00303DBB2012B26D10F9BC3F3C6
:1065600095231C939DF83C30C3F3C203DBB28DF836
:106570005030BDF83C30C3F38313DBB21B931B9B3D
:106580009A0009A91F9B049803F0DCFC1B9B9B004D
:106590001F9A13441F9312AA09A915AB009313461F
:1065A0001B9A1C9800F0CEFE2FE09DF83C3003F0C3
:1065B0000303DBB2022B28D1BDF83E30C3F38913AD
:1065C0009BB21E939DF83C30C3F3C203DBB28DF83F
:1065D00050301E9B082B28BF08231D9307A91F9B23
:1065E0001D9A049803F0AEFC1F9A1D9B13441F9341
:1065F0001E9A1D9BD31A1E9315AB12AA07A81D99AC
:1066000000F042FF1E9B002BE3D1049803F0CFFB68
:1066100000BF21B05DF804FB82B00190019BDB68F4
:1066200001225A7100BF02B07047000000B583B06C
:106630004FF0FF330193FFF7F8FE0421084800F004
:106640009DFD0190019B002B03DA064941200AF0D1
:106650007BF80348FFF7E0FF00BF03B05DF804FBE1
:10666000E45703001858030000B583B0019000916F
:10667000019B1B681B6800990198984700BF03B0F5
:106680005DF804FB00B583B00190019B1B685B685B
:106690000198984700BF03B05DF804FB00B583B0D4
:1066A0000190019B1B689B680198984700BF03B04D
:1066B0005DF804FB82B001900B468DF80330019B1E
:1066C000DB689DF803201A7100BF02B0704782B0EA
:1066D0000190019BDB681B79184602B0704782B0BD
:1066E0000190019BDB6801225A7100BF02B0704724
:1066F00082B00190019BDB685B79184602B070475D
:1067000000B585B0019000910C4B00221A700C4826
:1067100003F0A2FA0390039B002B01D0039B08E037
:10672000084803F0CDFC084A084BD31ADB08029353
:106730000023184605B05DF804FB00BF902D002033
:10674000405703008C580300E457030054570300DC
:10675000024A034BD31ADB0818467047E45703007C
:106760005457030000B587B001900B468DF80330F5
:106770009DF80330002B1FD0FFF7EAFF04900023A1
:10678000059313E0059B9B000E4A13440393039B60
:106790001B881A46019B1B689A4204D1019B059AEB
:1067A0001A60002309E0059B01330593059A049BB9
:1067B0009A42E7D3052300E00023184607B05DF8AE
:1067C00004FB00BFD82A002000B585B001900B461D
:1067D0008DF803309DF8032001AB11461846FFF7F2
:1067E000C1FF0346002B07D1019BDB00054A134480
:1067F0000393039B1B6800E00023184605B05DF877
:1068000004FB00BF5457030084B001900B468DF881
:106810000330019BDB00174A134402939DF80330B9
:10682000013B032B1CD801A252F823F03D68020063
:10683000456802004D6802005768020002238DF887
:106840000F3011E004238DF80F300DE0029B1B790F
:106850008DF80F3008E0029B5B798DF80F3003E074
:1068600000238DF80F3000BF9DF80F30184604B09C
:10687000704700BF5457030084B00190009100237B
:106880008DF80F30019B1B7803F00403DBB2002B63
:1068900024D0019B1B78C3F30103DBB2012B02D090
:1068A000022B0CD017E0009B1B68019A1288C2F3E0
:1068B0008312D2B213449A1C009B1A600BE0009B17
:1068C0001B68019A5288C2F3891292B213449A1C2F
:1068D000009B1A6000BF01238DF80F309DF80F3028
:1068E000184604B07047000000B58BB00023ADF827
:1068F00026303E4802F0BCFC3D4802F0B9FC3D4B5E
:106900009B6804933C4B1B680693049A069B1340B8
:1069100002339B00374A13440433089304AB1946EF
:106920000898FFF7A9FF0346002B09D0049A069B9D
:10693000134002339B002F4A134404330893EDE7BE
:1069400000BF0023079311E0049B5A1C0492069A8F
:106950001340079A920001A90A44264902339B007A
:106960000B445B681360079B01330793079B012B64
:10697000EAD99DF80430C3F30103DBB2012B10D038
:10698000022B1CD1BDF80A30ADF82630BDF8063018
:10699000C3F389139BB203339A08049B13440493F3
:1069A00013E0BDF80A30ADF82630BDF80430C3F36B
:1069B0008313DBB21A46049B1344049305E00F498A
:1069C0004FF4C27009F0C0FE00BF094802F05CFC41
:1069D0000590059B002B02D0049B064A9360BDF8EE
:1069E000263018460BB05DF804FB00BFA83100202C
:1069F000A4310020902D0020E02A00209C580300A4
:106A000000B585B00021074802F0A3FB0390039B6B
:106A10000293029B83F310030193019B184605B078
:106A20005DF804FBAC31002000B589B00390029101
:106A300001920093039B1B0C0793FFF7E1FF069065
:106A4000FFF786FE0246079B934204D3214940F29A
:106A5000A91009F079FE069B1904009B5A1C0A9B99
:106A60001340079A0A431C4902339B000B445A60A7
:106A7000009A0A9B134002339B00174A13440433C5
:106A80000593039B03F00703D9B2059A137861F3CA
:106A9000C5031370019B03F00F03D9B2059A138845
:106AA00061F389131380029BC3F31501059A1368E0
:106AB00061F39F231360059A1378012161F30103A9
:106AC0001370059A13786FF38203137000BF09B037
:106AD0005DF804FB9C580300902D002000BF704718
:106AE00000B58DB00390029113468DF80730039BDB
:106AF00002330A9301238DF8273000238DF81B30D1
:106B00000DF11B03184601F09FFD404B5A68029B94
:106B10001A603F4B1A683D4B99683C4B5B68CB1A37
:106B2000134401330B9314E001213A4802F070FB47
:106B3000FFF7DAFE07900799364802F069FB344BFD
:106B40001A68324B9968314B5B68CB1A1344013396
:106B50000B930A9A0B9B9A42E6D89DF82730002B9C
:106B600048D0002305939DF80730002B17D09DF8DF
:106B70001430012262F301038DF814309DF81430B3
:106B800043F004038DF81430039B03F00F03DAB2D3
:106B9000BDF8143062F38913ADF8143016E09DF897
:106BA0001430022262F301038DF814309DF8143082
:106BB00043F004038DF81430039BC3F309039AB226
:106BC000BDF8163062F38F13ADF816300F4B5A68CC
:106BD0000F4B1B68134002339B000C4A13440433D1
:106BE0000893059A089B1A60084B5A680A9B13443D
:106BF000064A53609DF81B30184601F03BFD9DF896
:106C0000273018460DB05DF804FB00BF902D002022
:106C1000E02A0020AC31002000B58BB00590049133
:106C200003920293204B1B68079306AB012219467F
:106C30000298FFF755FF0346002B24D0069B023332
:106C400009930023089311E0089B9B00039A1A44C0
:106C5000099B591C099107990B401268134902338B
:106C60009B000B445A60089B01330893089A029BCF
:106C70009A42E9D3069A079B00931346029A049915
:106C80000598FFF7D1FE094B1B78002B05D000BFFC
:106C900000F06AF80346002BFAD1FFF71FFF00BF90
:106CA0000BB05DF804FB00BFE02A0020902D00200F
:106CB00000B583B001900091002300220099019853
:106CC000FFF7AAFF00BF03B05DF804FB00B587B073
:106CD000039002910192019B059305AA0123029959
:106CE0000398FFF799FF00BF07B05DF804FB00B5FC
:106CF00087B00390029101920093019B0493009B43
:106D0000059304AA022302990398FFF785FF00BFA9
:106D100007B05DF804FB00B58BB0039002910192BF
:106D20000093019B0593009B06930C9B07930D9B7F
:106D300008930E9B099305AA052302990398FFF770
:106D40006BFF00BF0BB05DF804FB0000054B9A68B9
:106D5000044B5B689A420CBF01230023DBB2184648
:106D6000704700BF902D002000B599B0FFF7EEFFEF
:106D70000346002B01D00023C0E19B4B0022C3F847
:106D80001824BFF34F8F00BF974B9B680493974B1A
:106D90001B681093049A109B134002339B00924A85
:106DA00013440433119300231793002316930023F5
:106DB0000F9304AB19461198FFF75EFD0346002BB5
:106DC00019D0894BD3F81834002B14D1864B5A684C
:106DD000049B9A4205D8844B5B68834A93600023E6
:106DE0008CE1049A109B134002339B007E4A1344AB
:106DF00004331193DDE70023159311E0049B5A1C23
:106E00000492109A1340159A920001A90A447649F7
:106E100002339B000B445B681360159B0133159391
:106E2000159B012BEAD99DF8043003F00303DBB274
:106E3000022B40F09C80BDF80630C3F389139BB24F
:106E40000D93BDF80630C3F389139BB2502B28BFB6
:106E500050239BB20C930C9BC3F309039AB2BDF869
:106E6000063062F38F13ADF806300C9B08330B939A
:106E70009DF80430C3F3C203DBB20F930B995C4857
:106E800002F0F5FE1790179B002B00F0D3801798A7
:106E900002F07EFF01A9169B0822179803F034F830
:106EA000169B08331693049BDA43109B134001335F
:106EB0009B000A930C9A0A9B9A4242D90A9B002B88
:106EC00008D0049A109B134002339B00464A134497
:106ED000043300E0474B08930A9B002B02D00A9B27
:106EE000DBB201E00C9BDBB28DF81F300A9B002B5C
:106EF00001D0404B00E0002306930A9B002B06D0F4
:106F00000C9BDAB20A9BDBB2D31ADBB200E000239F
:106F10008DF817309DF81F20169B0899179802F0DE
:106F2000F3FF9DF81F30169A13441693069B002B0F
:106F300016D09DF81720169B0699179802F0E4FFCB
:106F40000EE0049A109B134002339B00264A134420
:106F500004330993169B0C9A0999179802F0D4FFF1
:106F60000D9B03339A08049B1344049362E09DF83D
:106F7000043003F00303DBB2012B5BD1BDF8043016
:106F8000C3F38313DBB2062B28BF0623DAB2BDF8A6
:106F9000043062F38913ADF80430BDF80430C3F354
:106FA0008313DBB202330E939DF80430C3F3C203A4
:106FB000DBB20F930E9B9B0019460D4802F057FE63
:106FC0001790179B002B35D0179802F0E1FE01A90E
:106FD000169B0822179802F097FF169B083316930A
:106FE000002315931DE000BF902D0020E02A002013
:106FF000405703009C2D0020049B5A1C0492109AB9
:10700000134002339B003F4A1344191D169B042270
:10701000179802F079FF169B04331693159B0133E2
:107020001593BDF80430C3F38313DBB21A46159BE6
:107030009342E1D3179B002B40D0324BD3F810344E
:107040001493304BD3F81834002B1BD0179802F050
:10705000AEFE4DE000238DF84F301498FFF748FB4B
:107060000346002B02D001238DF84F309DF84F309E
:10707000002B03D017991498FFF7F6FA149BDB68DE
:107080001B681493149B002BE4D1179802F08FFE19
:1070900000238DF803300DF10303184601F0D4FAF4
:1070A000184BD3F81834002B02D1049B154A936077
:1070B0009DF80330184601F0DDFA19E0114BD3F8C2
:1070C0001034129306E01298FFF7E8FA129BDB687F
:1070D0001B681293129B002BF5D10B4A0B4BD31A52
:1070E000DB081B0443F0020309491846FFF7E0FDE3
:1070F000FFF72CFE034683F00103DBB2184619B0FC
:107100005DF804FB902D00208C57030054570300BA
:107110000859030000B585B00023039323E0164B04
:10712000D3F81034029301238DF807300FE0029852
:10713000FFF7CDFA03461A46039B934203D100237F
:107140008DF8073006E0029BDB681B680293029B08
:10715000002BECD19DF80730002B01D0039B07E0FA
:10716000039B01330393039B092BD8DD4FF0FF33BF
:10717000184605B05DF804FB902D002000B585B0E1
:1071800001900B468DF80330FFF7C4FF0390039B7B
:10719000B3F1FF3F01D1039B22E0039BDBB2194611
:1071A0000198FFF787FA104BD3F81034002B08D161
:1071B0000D4A019BC2F81034019BDB6800221A6063
:1071C0000DE0094BD3F81034DA68019BDB681268D4
:1071D0001A60054BD3F81034DB68019A1A60039BE0
:1071E000184605B05DF804FB902D002000B583B073
:1071F0000C4BD3F8103401930A4B01221A7009E0AA
:107200000198FFF76CFA0198FFF73CFA019BDB68E5
:107210001B680193019B002BF2D100BF00BF03B09C
:107220005DF804FB902D002082B00190009100BF1A
:1072300002B0704710B584B003900291039BDB88C5
:10724000002B0AD0039BDB881A461F4B0093134682
:107250001E4A1F49029802F053F9039B1B7A052B23
:107260002ED0039B5B7A002B12D0039B9B881A467F
:10727000039B1B7A19461046FFF7C6FA03461A46C7
:10728000144B53F822301A461349029802F038F989
:10729000039B1B6819460298FFF7C6FF039B1B7AE6
:1072A0001A460E4B53F82240039B9B880021184638
:1072B000FFF78AFA034622460949029802F020F9AC
:1072C00000BF04B010BD00BF3C5903004C5903007F
:1072D00084590300F82A00209C590300E42A002066
:1072E000A059030000B585B00390029113468DF8B4
:1072F0000730039B1B7A052B0FD0039B5B7A002B77
:1073000006D00D4B1B681A460C49029802F0F8F89B
:107310000B49029802F0F4F807E09DF80730002BC3
:1073200003D00749029802F0EBF8029802F0C6F881
:1073300000BF05B05DF804FBF82A00209C5903004B
:10734000AC59030030B58BB00790069105920493B9
:107350000E9B1B7B8DF827300E9B00221A730E9913
:107360000498FFF767FF059B062B7FD801A252F810
:1073700023F000BF917302009B730200AB73020005
:10738000BF730200DD730200057402003574020051
:1073900007990E9802F0B4F869E0069B1B681A463C
:1073A00007990E9802F0ACF861E0069B1A68069BFC
:1073B00004331B6807990E9802F0A2F857E0069B69
:1073C0001A68069B04331968069B08331B680093F0
:1073D0000B4607990E9802F093F848E0069B19684F
:1073E000069B04331868069B08331B68069A0C3208
:1073F00012680192009303460A4607990E9802F01C
:107400007FF834E0069B1868069B04331C68069BD3
:1074100008331B68069A0C32126806991031096805
:107420000291019200932346024607990E9802F0BA
:1074300067F81CE0069B1C68069B04331D68069BCE
:1074400008331B68069A0C321268069910310968D5
:1074500006981430006803900291019200932B4625
:10746000224607990E9802F04BF800E000BF002278
:107470000E990498FFF736FF0E9B9DF827201A738C
:1074800000BF0BB030BD00BF00B587B003900291C4
:1074900001920093029B082B60D8009B1B7B8DF808
:1074A0001330009B00221A7300990198FFF7C2FE67
:1074B0000023059314E0059A029B9A4209D2039A8D
:1074C000059B13441B781A462649009802F018F8C9
:1074D00003E02549009802F013F8059B013305935A
:1074E000059B072BE7D92149009802F009F80023F2
:1074F000059326E0059A029B9A421BD2039A059BAC
:1075000013441B788DF812309DF812307E2B0AD868
:107510009DF8123018460DF0D7FC0346002B02D020
:107520009DF8123000E02E231A461149009801F010
:10753000E7FF03E00F49009801F0E2FF059B0133EC
:107540000593059B072BD5D9012200990198FFF7D8
:10755000C9FE009B9DF813201A7300E000BF07B01E
:107560005DF804FBB0590300B8590300BC5903008F
:10757000C0590300C459030086B0039002910192E0
:1075800001238DF817309DF81730204A039B1360B4
:107590001E4A029B53601D4A019B9360039B44F269
:1075A0000102934212D0039B44F20202934220D183
:1075B000019B164AD360154BDB681B68134A936125
:1075C000124BDB685B68114AD36112E0019B0F4AE2
:1075D00013610E4B1B699B680C4A53610B4B1B6973
:1075E0001B680A4A9361094B1B695B68074AD361B0
:1075F00000BF72B600BF00BF9DF81730DBB2002B92
:10760000FAD162B600BF00BF06B07047B0310020AB
:1076100000B583B002900091019244F201007146DE
:107620006A4600F003F803B000BD00BF30B58BB070
:1076300007900691059272B600BFFFF7D7FD00BF15
:10764000FFF792FB0346002BFAD1079B44F202029C
:1076500093422FD0079B44F20202934269D8079BC2
:1076600044F20102934237D0079B44F20102934255
:107670005FD8079B012B05D0079B41F20102934283
:107680000CD056E0394A3A4BD31ADB081B0443F0BE
:10769000010338491846FFF70BFB57E0334A344BD8
:1076A000D31ADB081B0443F0010333491846FFF7E4
:1076B000FFFA4BE0059B09932C4A2D4BD31ADB08AC
:1076C0001B0443F00100099B5B681A46099B1B6879
:1076D0002A49FFF70CFB39E0059B0893234A244B0A
:1076E000D31ADB081B0443F00104089B9D68089B28
:1076F0009B68184602F004FE03461846089B5B6828
:107700001946089B1B68069A029201930091034652
:107710002A461B492046FFF7FEFA144A144BD31A97
:10772000DB081B0443F0010316491846FFF7C0FAB3
:107730000CE00E4A0E4BD31ADB081B0443F0010386
:10774000069A11491846FFF7C1FA00BF0F4B1B6894
:1077500003F00103002B00D000BE059A069907989C
:10776000FFF70AFF00BF0BB030BD00BF8C5703000E
:10777000545703003C5A03005C5A0300805A03002C
:107780009C5A0300C45A0300D85A0300F0ED00E0ED
:1077900084B00190019B9B680393019BDA68039B73
:1077A000D31A184604B0704782B001900B468DF88A
:1077B0000330019B1A68019BDB68019989880B40A3
:1077C00013449DF803201A70019BDB685A1C019B2F
:1077D000DA6000BF02B0704784B003900B4601929C
:1077E000ADF80A30039B1A68039B9968BDF80A300C
:1077F0000B44039989880B4013441A78019B1A7033
:1078000000BF04B0704700B583B001900091009AAA
:1078100000210198FFF7E0FF019B9B685A1C019B28
:107820009A6000BF03B05DF804FB84B0039002913E
:107830001346ADF80630029B002B01D10E231DE04C
:10784000BDF80630002B07D0BDF806305A1EBDF833
:1078500006301340002B01D009230FE0039B029A4E
:107860001A60BDF80630013B9AB2039B9A80039BD5
:1078700000229A60039B0022DA600023184604B0BD
:10788000704700B583B001900B468DF80330019826
:10789000FFF77EFF0246019B9B889A4207D89DF81E
:1078A000033019460198FFF77FFF002300E004230F
:1078B000184603B05DF804FB00B583B00190009159
:1078C0000198FFF765FF0346002B05D0009901984A
:1078D000FFF799FF002300E00523184603B05DF889
:1078E00004FB00002DE9F04383B0144801F0BDFA19
:1078F000034600221C461546114BD3E9002314EB26
:10790000020845EB0309CDE900890E4BD3E90023BA
:10791000DDE90001904271EB030307D2DDE90023AA
:1079200012F1807643F10007CDE90067DDE900231D
:107930001046194603B0BDE8F08300BF1C2B0020A1
:10794000D8310020E031002088B001900091019BE7
:107950000793009B0693079BD3E90223CDE90423F9
:10796000069BD3E90223CDE90223DDE90423DDE907
:107970000201904271EB03032CBF01230023DBB211
:10798000184608B070470000F0B585B00190019B23
:107990005B69002B03D14349A52008F0D5FE0023E5
:1079A0008DF80F30404B1B78002B75D0019B002BBE
:1079B00072D0FFF797FF019BD3E90223904271EB4E
:1079C000030358D300238DF80D300DF10D03184635
:1079D00000F03AFE019B1B69002B06D101994FF084
:1079E000FF324FF0FF33C1E902239DF80D301846F6
:1079F00000F040FE019B5B69019A9269104698472E
:107A000000238DF80C3003AB184600F01DFE019BDF
:107A10001B69002B1AD0019BD3E90223B3F1FF3F6E
:107A200008BFB2F1FF3F11D0019BD3E902230199B6
:107A3000096900200C460546161943EB0507019B12
:107A4000C3E9026701238DF80E3002E000238DF8B0
:107A50000E309DF80C30184600F00CFE9DF80E30EC
:107A6000002B19D0019B1946104802F0A3FB0123FB
:107A70008DF80F3010E0019BD3E90223B3F1FF3FF3
:107A800008BFB2F1FF3F07D0019B1946074802F03B
:107A900091FB01238DF80F309DF80F30184605B08B
:107AA000F0BD00BFFC5A0300D4310020645B03002A
:107AB00030B58BB0019000910D230993009B0022FB
:107AC0001A70019BD3E90223CDE90623FFF70AFFD1
:107AD000DDE90623141A63EB0105CDE90445DDE970
:107AE0000423012A73F1000318DB049BB3F5350F5F
:107AF00005D300F00BFB0246144B134400E0069B39
:107B000003934FF49603039A0021114801F0A0F863
:107B10000990099B002B05D1012314E000210C489A
:107B200001F06EF9099B0D2B07D10198FFF72CFF8F
:107B300003461A46009B1A7004E006494FF486700B
:107B400008F002FE002318460BB030BDFFFFB40062
:107B50001C2B0020FC5A030000B583B0044802F03F
:107B600063FB0190019B184603B05DF804FB00BF66
:107B7000645B030000B583B0044802F077FB01901A
:107B8000019B184603B05DF804FB00BF645B030073
:107B900000B583B0FFF7E0FF0190019B002B06D0FA
:107BA00001994FF0FF324FF0FF33C1E90223019BEF
:107BB000002BEFD100BF00BF03B05DF804FB000055
:107BC000054BD3E9002312F1807043F10001024B11
:107BD000C3E9000100BF7047D831002010B582B062
:107BE0000190124B1B68002B1DD0019801F03DF94C
:107BF00004460021019801F029F903461946204660
:107C000000F078FA0346B3F5960F04D3084940F222
:107C1000411008F099FD054B1B681846FFF7B4FEAC
:107C2000024B00221A6000BF02B010BDD03100200C
:107C3000FC5A030000B583B00190FFF753FE0246E3
:107C40000B460349C1E9002300BF03B05DF804FB04
:107C5000E031002000B587B00190FFF78BFF049062
:107C600000238DF81730049B002B58D0049BD3E9D8
:107C70000223B3F1FF3F08BFB2F1FF3F02D1FFF78C
:107C80006BFF54E02E4B1B68002B03D101238DF8B2
:107C900017301DE0049BD3E90201294B1B68D3E98F
:107CA0000223904271EB030312D201238DF81730A7
:107CB000234B1B68D3E90223B3F1FF3F08BFB2F1A6
:107CC000FF3F05D01E4B1B6819461E4802F072FA92
:107CD0009DF81730002B2BD0FFF73EFF04900DF1DD
:107CE0000F0319460498FFF7E3FE0346002B12D05A
:107CF000134B1B68002B02D1019800F0B5FE104A0F
:107D0000049B13609DF80F3083F00103DBB2002B5E
:107D1000A3D000BF0FE00A4B00221A609DE7084B7A
:107D20001B68002B06D1019800F0B4FE02E094E736
:107D300000BF00E000BF00BF07B05DF804FB00BF5C
:107D4000D0310020645B030000B587B001902B4A5E
:107D500003AB1946104601F086F9049045E0049BF8
:107D60001B78022B2BD0022B2FDC002B02D0012BF7
:107D700011D02AE0049B5B68D3E90223B3F1FF3FF3
:107D800008BFB2F1FF3F22D0049B5B6819461C4834
:107D900002F010FA1BE0049B5A681A4B1B689A42C7
:107DA00003D1184B00221A6012E0049B5B6819464D
:107DB000134802F06FFA03468DF8173008E0FFF71A
:107DC000E7FE114B01221A7002E000BF00E000BF85
:107DD0000A4A03AB1946104601F05EF9074A03ABA5
:107DE0001946104601F03FF90490049B002BB6D1D0
:107DF00000BF00BF07B05DF804FB00BF40320020A9
:107E0000645B0300D0310020D431002000B583B082
:107E10000190019800F0E7FF0346002B01D0FFF727
:107E2000CFFE0021019800F0FCFF0346002B02D09A
:107E30000198FFF7D3FE0121019800F0F2FF0346FD
:107E4000002B02D00198FFF7F5FE0198FFF77CFFA9
:107E50000198FFF7FFFE00BF03B05DF804FB0000D0
:107E600008B5024801F00EF800BF08BD1C2B002029
:107E700000B585B0034600918DF80730114A02AB7A
:107E80001946104601F0C2F80390039B002B13D053
:107E9000039B9DF807201A70039B009A5A60094AB9
:107EA00002AB1946104601F0CAF80346002B01D078
:107EB000FFF7D6FF002300E00423184605B05DF865
:107EC00004FB00BF4032002000B583B0164B1B6896
:107ED0000093164808235822154901F064F80190D0
:107EE000019B002B01D0019B19E06B46114A1946FA
:107EF000114800F03BFD0190019B002B01D0019B3C
:107F00000DE001210C4800F05DFF01230B4A012127
:107F1000094800F0D5FD0A4B01221A70019B184652
:107F200003B05DF804FB00BF605B0300403200203B
:107F3000E83100200D7E02001C2B0020FFFF7F0097
:107F4000D431002000B587B003900B4601928DF824
:107F50000B30039B002B04D1164940F25A2008F045
:107F6000F3FB019B002B04D1124940F25B2008F087
:107F7000EBFB019B002B01D1072317E0039B1B6840
:107F8000059305994FF0FF324FF0FF33C1E902230B
:107F9000059B019A5A619DF80B30012B0CBF012300
:107FA0000023DBB21A46059B1A610023184607B06E
:107FB0005DF804FBFC5A0300F0B589B00390029110
:107FC0000192039B002B04D1264940F26B2008F05C
:107FD000BBFB039B069300238DF817300DF11703AD
:107FE000184600F031FB069BD3E90223B3F1FF3FB3
:107FF00008BFB2F1FF3F11D1FFF774FC02460B46F8
:10800000029900200C460546161943EB0507069B0E
:10801000C3E9026701238DF81F3002E000238DF8C9
:108020001F309DF81730184600F024FB9DF81F30D4
:1080300083F00103DBB2002B01D000230EE0069B8E
:10804000019A9A61069B1B69002B02D0069B029A3B
:108050001A6106990020FFF70BFF0346184609B086
:10806000F0BD00BFFC5A030000B587B00190019B32
:10807000002B04D11E4940F2932008F065FB019BC0
:10808000049300238DF80F300DF10F03184600F014
:10809000DBFA049BD3E90223B3F1FF3F08BFB2F13F
:1080A000FF3F03D100238DF8173009E004994FF00A
:1080B000FF324FF0FF33C1E9022301238DF817305F
:1080C0009DF80F30184600F0D5FA9DF8173083F070
:1080D0000103DBB2002B01D0002304E0049901204E
:1080E000FFF7C6FE0346184607B05DF804FB00BF65
:1080F000FC5A030082B001900091019A009BD31AB0
:1081000023F07F43184602B07047000008B50348CB
:1081100000F0ABFE0346184608BD00BF1C2B002034
:1081200000B587B00390029113468DF80730002305
:108130000593039B1B781A46114B9B5C002B09D0BF
:10814000039B04339DF807200299184606F0D8FBDC
:1081500005900FE0039B1B781A46094B9B5C002B94
:1081600008D1039B0C339DF807200299184605F0AF
:1081700071FD0590059B184607B05DF804FB00BF34
:108180000433002000B585B0019000238DF80F3036
:10819000019B1B781A46114B9B5C002B08D0019B5E
:1081A0000433184606F06AFC03468DF80F300EE0E3
:1081B000019B1B781A46094B9B5C002B07D1019B46
:1081C0000C33184605F0CEFD03468DF80F309DF8B0
:1081D0000F30184605B05DF804FB00BF04330020E3
:1081E00000B587B00390029113468DF80730002345
:1081F0000593039B1B781A46114B9B5C002B09D0FF
:10820000039B04339DF807200299184606F04EFCA4
:1082100005900FE0039B1B781A46094B9B5C002BD3
:1082200008D1039B0C339DF807200299184605F0EE
:10823000F1FD0590059B184607B05DF804FB00BFF3
:108240000433002084B00190019B9B680393019B41
:10825000DA68039BD31A184604B0704700B587B09C
:1082600001900091019B1B78022B45D0022B6ADC08
:10827000002B52D0012B66D1019B1B7A002B05D11C
:10828000012233493348FFF7ABFF5DE0019B5B6898
:108290001B7819463048FFF7F4FA0590059B002B30
:1082A0000AD001238DF80C30059B04932B4B1B68DF
:1082B00003AA104698470DE02748FFF7C3FF03467F
:1082C000002B07D000238DF80C30244B1B6803AA29
:1082D000104698472048FFF7B5FF03461E4A92888C
:1082E000934205D801221A491A48FFF779FF2BE07B
:1082F0001B4B01221A7027E002238DF80C30019BE2
:10830000DB680493012212491248FFF769FF134BFF
:108310001B6803AA1046984716E012491248FFF757
:10832000CBFA0346002B05D101220E490948FFF77D
:10833000F7FE09E003238DF80C30084B1B6803AAF5
:108340001046984700E000BF00BF07B05DF804FB8F
:108350005C320020242B00206032002054320020A8
:108360005D320020583200207032002030B591B0CC
:108370000390029101928DF803303C4A019B1360F7
:10838000029B002B01D107236DE0029B1968029B21
:108390005B689BB21A463648FFF747FA0F900F9B6F
:1083A0000E930E9B002B01D00E9B5CE0029B996804
:1083B000029BDB689BB21A462E48FFF736FA0F90F5
:1083C0000F9B0D930D9B002B01D00D9B4BE02A4B77
:1083D00004AC1D460FCD0FC495E80F0084E80F00D4
:1083E000039B5B690A93039B1B7C002B14BF012337
:1083F0000023DBB28DF824309DF803308DF82C304B
:10840000039B5B7C002B01D00E2300E000238DF842
:108410002530039BDB680693039B9B680793039BB4
:108420001B680593039B5B68049304AB134A1946CE
:10843000134803F067FE0F900F9B0C930C9B002BCF
:1084400001D00C9B0FE00F4B00221A70039B1B689E
:10845000B3F1FF3F06D001220B490948FFF7C0FEE8
:10846000034600E00023184611B030BD543200200E
:108470006032002070320020705B03005D820200D9
:10848000242B00205D3200205C32002000B587B034
:108490000190019B002B03D11449CA2008F054F924
:1084A000134B1B788DF8173001991248FFF704FA27
:1084B00004909DF81730002B12D00D4B00221A703B
:1084C00001220D490D48FFF78BFE0390039B029399
:1084D000029B002B04D0054AD6210298FFF798F89A
:1084E000049B184607B05DF804FB00BF905B0300D7
:1084F0005D320020603200205C320020242B0020FE
:1085000000B585B003468DF807309DF80730194651
:108510001048FFF7B6F90390039B002B15D10E48C6
:10852000FFF730FE034683F00103DBB2002B0CD0D3
:108530000A490848FFF7C0F90346002B05D101227C
:1085400006490548FFF7ECFD0390039B184605B06C
:108550005DF804FB70320020242B002058320020EC
:1085600082B0EFF310830093009B019372B600BFBB
:10857000019B184602B0704762B600BF00BF70474B
:1085800000B585B00190FFF7EBFF0390164B9B6899
:10859000002B1BD1144B01229A60144BD3F880207E
:1085A000134B1340104A1360104B114AC3F880203C
:1085B0000E4BD3F884300C4A53600C4B4FF0FF3213
:1085C000C3F88420019B00221A7002E0019B012263
:1085D0001A70039B002B01D1FFF7CEFF0023184632
:1085E00005B05DF804FB00BF8032002000E100E030
:1085F000FC06FFBD00B585B003468DF80730104B73
:108600009B68002B16D09DF80730002B12D1FFF786
:10861000A7FF03900B4A0A4B1B681360094A084BDB
:108620005B685360064B00229A60039B002B01D1CC
:10863000FFF7A2FF0023184605B05DF804FB00BF5A
:108640008032002000E100E000B583B0019000F02E
:108650002BF80346012B03D00549432008F074F89A
:108660000198FFF78DFF00BF03B05DF804FB00BF6A
:10867000F85B030000B583B003468DF8073000F0C7
:1086800013F80346012B03D00649512008F05CF88B
:108690009DF807301846FFF7ADFF00BF03B05DF847
:1086A00004FB00BFF85B030084B0EFF30583019384
:1086B000019BC3F308030393039B002B0DD1EFF33E
:1086C00014830093009B0293029B03F00103002B91
:1086D0000CBF01230023DBB200E00123184604B0E5
:1086E0007047000082B003468DF807309DF90730CF
:1086F000002B0CDB9DF8073003F01F0205499DF9A4
:1087000007305B09012000FA02F241F8232000BF84
:1087100002B0704700E100E082B003468DF80730F8
:108720009DF90730002B0DDB9DF8073003F01F0289
:1087300006499DF907305B09012000FA02F2403337
:1087400041F8232000BF02B0704700BF00E100E005
:1087500082B0034600918DF807309DF90730002B59
:108760000ADB009BDAB20C499DF907305201D2B204
:108770000B4483F800230BE0009BDAB207499DF815
:10878000073003F00F03043B5201D2B20B441A76B8
:1087900000BF02B0704700BF00E100E000ED00E064
:1087A00000B583B003460A468DF8073013468DF8AE
:1087B00006309DF80630012B03D99DF80630032BB7
:1087C0000BD99DF80630042B03D99DF80630072BF2
:1087D00003D908496B2007F0B7FF9DF806209DF9E3
:1087E000073011461846FFF7B3FF00BF03B05DF82E
:1087F00004FB00BF645C030000B583B003468DF842
:1088000007309DF907301846FFF76CFF00BF03B033
:108810005DF804FB00B585B00190019B002B0AD0E8
:10882000074B43F001030393019B9B010293039BBE
:108830000298984700E000BF05B05DF804FB00BF58
:10884000805D030084B0039002910192039B029A21
:1088500002F5A872019943F8221000BF04B07047D6
:1088600082B001900091019B009A02F5A87253F822
:108870002230184602B0704782B001900091019BEF
:10888000009AC3F8042300BF02B0704782B0019081
:108890000091019B009AC3F8082300BF02B0704703
:1088A00082B001900B46ADF80230BDF80230019A5B
:1088B00013441B68184602B0704784B001900B4601
:1088C000ADF80230BDF80230019A134400221A605C
:1088D000BDF80230019A13441B680393039B00BF49
:1088E00004B0704782B00190019BD3F8043518465C
:1088F00002B0704700B583B001900091009BB3F5C2
:10890000805F04D306494FF4BE7007F01DFF019B42
:10891000009AC3F8082500BF03B05DF804FB00BF50
:10892000945C030082B001900B468DF803309DF8F3
:108930000320019B13441A460123136000BF02B0B9
:10894000704782B001900091019B009AC3F84423C4
:1089500000BF02B0704782B001900091019B009A65
:10896000C3F8482300BF02B07047000000B587B0CD
:10897000039002910192039B002B03D133495520B0
:1089800007F0E2FE029B002B03D13049562007F08E
:10899000DBFE019B002B03D12C49572007F0D4FEAE
:1089A000039B5B7919462A4A019B42F82130039BBD
:1089B0005B79284ADB0013441B79002B0ED0082377
:1089C0000593254A254BD31ADB081B0443F0020309
:1089D00023491846FEF76CF9059B32E0039B1A68A1
:1089E000029B1B8819461046FFF784FF039B93F9EF
:1089F0000420029B9B7819461046FFF7D1FE039B8B
:108A000093F904301846FFF7F7FE039B5B79114A90
:108A1000DB00134401221A71039B5B7919460D4A4E
:108A2000039B42F83130002305930B4A0B4BD31ABA
:108A3000DB081B0443F003030A491846FEF738F924
:108A4000059B184607B05DF804FB00BFC45C03003B
:108A50008C320020903200209C57030054570300B2
:108A6000285D03004C5D030000B583B00190019BBD
:108A7000002B03D10649872007F066FE019B1B6887
:108A800000211846FFF74EFF00BF03B05DF804FB5E
:108A9000C45C030000B583B00190019B002B03D19F
:108AA00006498D2007F050FE019B1B6804211846E3
:108AB000FFF738FF00BF03B05DF804FBC45C0300A0
:108AC00000B587B00390029101928DF80330039BAB
:108AD000002B03D12149962007F036FE4FF4803257
:108AE000029B02FA03F30593029B50339BB29B0057
:108AF000ADF81230019B23F07F430193039B1B6869
:108B000005991846FFF7C2FE039B1B680599184696
:108B1000FFF721FF039B1B68BDF812201146184682
:108B2000FFF7CBFE039B1B68019A02991846FFF7DB
:108B300089FE039B1B6805991846FFF702FF9DF805
:108B40000330002B05D0039B1B6805991846FFF7DF
:108B500093FE00BF07B05DF804FB00BFC45C0300D8
:108B600000B585B00390029113468DF80730039B42
:108B7000002B03D10B49A92007F0E6FD039B1B68DE
:108B800002991846FFF7DDFE9DF80730002B05D04F
:108B9000039B1B6802991846FFF76EFE00BF05B0E5
:108BA0005DF804FBC45C030000B583B00190009144
:108BB000019B002B03D10A49B32007F0C5FD019B9F
:108BC0001B6800991846FFF7C6FE019B1B680099B9
:108BD0001846FFF75BFE00BF03B05DF804FB00BF63
:108BE000C45C030000B583B001900B46ADF80230C1
:108BF000019B002B03D10F49BA2007F0A5FD019B73
:108C00001B68BDF8022011461846FFF749FE0346CF
:108C1000002B09D0019B1B68BDF8022011461846A5
:108C2000FFF74BFE012300E00023184603B05DF878
:108C300004FB00BFC45C030082B001900091019A64
:108C4000009BD31A23F07F43184602B07047000000
:108C500000B58BB00390029101920093039B002B0F
:108C600003D15749CD2007F06FFD4FF48032029BAE
:108C700002FA03F30993029B50339BB29B00ADF8B9
:108C80002230019B23F07F43019309990398FFF75A
:108C90008BFF039B1B681846FFF724FE0790039B7E
:108CA0001B6802991846FFF7DBFD0690039B1B68C3
:108CB000079A02991846FFF7C5FD039B1B68BDF88C
:108CC000222011461846FFF7F8FD07990698FFF78E
:108CD000B3FF0346012B0AD11020FFF79BFD039B36
:108CE0001B68BDF8222011461846FFF7E6FD039BDE
:108CF0001B681846FFF7F6FD079007990198FFF7E4
:108D00009BFF0590039B1B6809991846FFF719FE06
:108D1000059B012B15D1039B1868019B01331A4653
:108D20000299FFF78FFD1020FFF774FD039B1B686E
:108D30001846FFF7D7FD0246079B934235D00D2317
:108D400039E0039B1B68019A02991846FFF77AFDE8
:108D5000039B1B681846FFF7C5FD0790019B013B6D
:108D600007991846FFF768FF0590009BC3F1FF13B2
:108D700003F57F43059A9A4201D90D231BE0059B19
:108D8000002B12D1039B1868019B01331A460299EC
:108D9000FFF758FD039B1B681846FFF7A3FD02462B
:108DA000079B934201D00D2305E001220999039806
:108DB000FFF7D6FE002318460BB05DF804FB00BF9A
:108DC000C45C030000B583B001900B468DF80330FE
:108DD0009DF803301A4602210198FFF7C1FE00BF3B
:108DE00003B05DF804FB00B583B001904FF48271CD
:108DF0000198FFF7F7FE0346184603B05DF804FB41
:108E000000B583B0019000914FF48032009B02FACC
:108E100003F319460198FFF7C7FE00BF03B05DF8E2
:108E200004FB00B585B001900091009B50339BB2CC
:108E30009B00ADF80E30BDF80E3019460198FFF7D3
:108E4000D1FE0346184605B05DF804FB00B583B0BB
:108E500001900091019B1B6800991846FFF700FDE7
:108E60000346184603B05DF804FB00B583B00190DB
:108E7000019B1B681846FFF735FD0346184603B0F3
:108E80005DF804FB00B583B00190019B93F90430B9
:108E90001846FFF741FC00BF03B05DF804FB00007B
:108EA00008B5044B1B68044A12681046984700BF77
:108EB00008BD00BF8C3200209032002086B00190A7
:108EC0000091019B53E8011F8AB2D8890244988916
:108ED000824228BF121A1889824202BFBFF32F8F25
:108EE000002307E0C2EA010243E801200028E9D19B
:108EF0004FF001038DF80F30059002910492029A11
:108F0000009B1A609DF80F30DBB2184606B0704720
:108F100084B00190019951E8013FC3EA034341E85D
:108F20000132002AF7D10392029300BF04B07047C8
:108F300086B001900091019B53E8021F1FFAA1F235
:108F4000D888824202BFBFF32F8F00230DE0D8895B
:108F500002449889824228BF121AC1EA024243E8B9
:108F600002200028E8D14FF001038DF80F30059062
:108F700002910492029A009B1A609DF80F30DBB2B6
:108F8000184606B0704784B00190019951E8023F3D
:108F9000C3EA234341E80232002AF7D10392029345
:108FA00000BF04B0704784B00390029111461A4686
:108FB0000B46ADF806301346ADF80430029B002B8B
:108FC00001D10E231FE0BDF80630BDF80420B3FB2D
:108FD000F2F101FB02F29B1A9BB2002B01D0092394
:108FE00011E0039B029A1A60039B00225A60039BC4
:108FF00000229A60039BBDF806209A81039BBDF86E
:109000000420DA810023184604B0704700B585B00B
:1090100001900091009B19460198FFF74FFF03460E
:10902000002B07D0019B1B68009A128813440393FE
:10903000039B00E00023184605B05DF804FB00B573
:1090400083B001900091009B1A88009B5B889A4234
:1090500004D10198FFF75CFF012300E000231846CC
:1090600003B05DF804FB00B585B001900091009B52
:1090700019460198FFF75CFF0346002B07D0019BC0
:109080001B68009A528813440393039B00E000235B
:10909000184605B05DF804FB00B583B0019000915F
:1090A000009B1A88009B5B889A4204D10198FFF7C5
:1090B0006AFF012300E00023184603B05DF804FBBB
:1090C00000B585B001900091009B5B099B00019A5F
:1090D0001A44009B03F01F03012101FA03F3194610
:1090E000104600F04DF8039000BF05B05DF804FB9A
:1090F00000B585B001900091009B5B099B00019A2F
:109100001A44009B03F01F03012101FA03F3DB4320
:109110001946104600F064F8039000BF05B05DF8F2
:1091200004FB82B001900091009B5B099B00019AB7
:1091300013441A68009B03F01F0322FA03F303F0A1
:109140000103002B14BF01230023DBB2184602B039
:10915000704710B487B001900091019B009A53E8CA
:10916000004F104643E8000191F0000FF7D105943D
:1091700004900391059B184607B05DF8044B7047B7
:1091800010B487B001900091019B009A53E8004F02
:1091900044EA020043E8000191F0000FF6D1059483
:1091A00004900391049B184607B05DF8044B704788
:1091B00010B487B001900091019B009A53E8004FD2
:1091C00004EA020043E8000191F0000FF6D1059493
:1091D00004900391059B184607B05DF8044B704757
:1091E00010B487B001900091019B009A53E8004FA2
:1091F00004EA020043E8000191F0000FF6D1059463
:1092000004900391049B184607B05DF8044B704727
:1092100010B487B001900091019B009A53E8004F71
:1092200004EB020043E8000191F0000FF6D1059431
:1092300004900391049B184607B05DF8044B7047F7
:1092400010B487B001900091019B009A53E8004F41
:10925000A4EB020043E8000191F0000FF6D1059461
:1092600004900391049B184607B05DF8044B7047C7
:1092700000B583B0019001210198FFF781FF0346FB
:10928000184603B05DF804FB00B583B001900021DF
:109290000198FFF78DFF0346184603B05DF804FB05
:1092A00000B583B001900B468DF80330019B002B75
:1092B00003D10849E82007F047FA019BDA689DF8D6
:1092C00003300199098A01FB03F31344184603B0E4
:1092D0005DF804FB885D030000B583B00190009148
:1092E000019B002B03D10849F52007F02DFA009BC4
:1092F000019AD2689B1A019A128AB3FBF2F3DBB28D
:10930000184603B05DF804FB885D030000B585B026
:109310000190019B002B01D10E234CE0019B1B68A7
:10932000002B03D12649FF2007F00EFA019B5B6852
:10933000002B04D122494FF4807007F005FA019BFD
:109340009B68002B04D11E4940F2011007F0FCF984
:10935000019BDB68002B04D119494FF4817007F0A1
:10936000F3F9019B1B8A002B04D1154940F203102D
:1093700007F0EAF9019B9A68019B5B68D31A8DF8A4
:109380000F30019B1B68019A52681A6007E0019B2D
:109390001A681368591C11609DF80F201A709DF807
:1093A0000F305A1E8DF80F20002BF0D1019B1B6847
:1093B00000221A710023184605B05DF804FB00BFB7
:1093C000885D030000B585B00190019B002B04D19E
:1093D0001F494FF4927007F0B7F90023039300235D
:1093E0008DF80A300DF10A031846FFF72DF9019B9D
:1093F0001B681A68019B5B689A421FD9019B1B6816
:109400001A68013A1A601B681B7819460198FFF721
:1094100047FF0390019B9A68019B1B681B68D31A46
:109420008DF80B30019B1B681B799DF80B209A422D
:1094300004D9019B1B689DF80B201A719DF80A3016
:109440001846FFF717F9039B184605B05DF804FBB3
:10945000885D030010B584B001900091019B002B42
:1094600004D1154940F2471007F06EF9009B002B1C
:1094700004D111494FF4A47007F066F9009B0393DF
:1094800000238DF80B300DF10B031846FFF7DCF8C5
:10949000019B1B681C68621C1A6003990198FFF706
:1094A0001BFF034623709DF80B301846FFF7E2F8C8
:1094B00000BF04B010BD00BF885D030000B583B0DD
:1094C0000190019B002B03D10C49312007F03CF99E
:1094D000019B9B68002B0CD0019B5B69019A106972
:1094E000019A1168019A92689847019B00229A603C
:1094F00000E000BF03B05DF804FB00BFF05D0300B7
:109500000EB400B584B00190019B002B03D1184923
:10951000422007F019F9019B5B69002B03D1144924
:10952000432007F011F9019B1B68002B03D1104960
:10953000442007F009F9019B5B68002B03D10C491B
:10954000452007F001F9059B002B0AD00023039367
:1095500006AB039303AB1A460599019800F0B8F9DE
:1095600000E000BF04B05DF804EB03B0704700BF3B
:10957000F05D030000B583B001900B468DF8033019
:109580009DF803300A2B03D10D210198FFF7F2FF5C
:10959000019B1A68019B9B68581C019988601344C1
:1095A0009DF803201A70019B9A68019B5B689A42A0
:1095B00002D30198FFF782FF00BF03B05DF804FB00
:1095C00000B587B0039002910192009300230593A8
:1095D000009B03F00103002B24D00BE0029B01331E
:1095E0000293059B013305939DF8133019460398A8
:1095F000FFF7C0FF029B1B788DF813309DF81330E6
:10960000002BEBD106E0019B013B01932021039845
:10961000FFF7B0FF019A059B9A422ED9019B002BC0
:10962000F1D12AE0029B002B0BD002980BF026FD13
:10963000059006E0019B013B019320210398FFF771
:1096400099FF019A059B9A420FD9019B002BF1D1FA
:109650000BE0029B01330293059B013305939DF8B8
:10966000133019460398FFF785FF029B1B788DF88E
:1096700013309DF81330002BEBD100BF07B05DF81D
:1096800004FB000000B589B00390029101920093A1
:10969000029B07930123069307E0079A019BB2FB05
:1096A000F3F30793069B01330693079A019B9A42B3
:1096B000F3D2009A069B9A4201D9009B06930B9B1A
:1096C00003F00103002B22D10A9B002B1FD00B9B20
:1096D00003F00203002B06D0009B002B03D13023A4
:1096E0008DF8173002E020238DF8173008E00A9B30
:1096F000013B0A939DF8173019460398FFF73AFF8C
:109700000A9B002B03D0069A0A9B9A42EFD30123AF
:109710000793009B012B03D9009B013B009309E0B9
:10972000029A079BB2FBF3F30493049A019B9A42BB
:1097300000D205E0079B019A02FB03F30793E8E7D9
:10974000029A079BB2FBF3F30493049B079A02FB74
:1097500003F3029AD31A0293154A049B13441B780D
:1097600019460398FFF706FF079A019BB2FBF3F334
:109770000793079B002BE3D10B9B03F00103002B06
:1097800011D00A9B002B0ED006E00A9B013B0A93E6
:1097900020210398FFF7EEFE0A9B002B03D0069AC8
:1097A0000A9B9A42F1D300BF09B05DF804FB00BFE9
:1097B000B05E030000B589B0059004910392029356
:1097C000049B002BB8BF5B4206930123079307E07D
:1097D000039B069A92FBF3F30693079B01330793CF
:1097E000039B069A9A42F3DA029A079B9A4201D99E
:1097F000029B07930A9B002B0AD0049B002B04DBDF
:109800000B9B03F00403002B02D00A9B013B0A933D
:109810000B9B03F00203002B02D0029B002B16D0FF
:109820000B9B03F00103002B11D10A9B002B0ED0E0
:1098300006E00A9B013B0A9320210598FFF79AFE58
:109840000A9B002B03D0079A0A9B9A42F1D3049BF0
:10985000002B07DA049B5B4204932D210598FFF748
:1098600089FE08E00B9B03F00403002B03D02B219F
:109870000598FFF77FFE0B9B03F00203002B19D026
:109880000B9B03F00103002B14D1029B002B11D181
:109890000A9B002B0ED006E00A9B013B0A93302165
:1098A0000598FFF767FE0A9B002B03D0079A0A9BD7
:1098B0009A42F1D304990B9B01930A9B0093029B5C
:1098C000039A0598FFF7DEFE00BF09B05DF804FBC0
:1098D00000B58FB0059004910392059B002B04D135
:1098E000AD4940F2522006F02FFF059B5B69002B2B
:1098F00004D1A9494FF4157006F026FF059B1B689B
:10990000002B04D1A44940F2552006F01DFF059B11
:109910005B68002B04D1A04940F2562006F014FFEA
:10992000049B002B00F09381049B1B788DF837304B
:10993000049B013304939DF83730002B00F07E81A7
:109940009DF83730252B40F06D8100230A930123C9
:109950000C93049B1B788DF837309DF83730302BF3
:109960000DD0302B1BDC2B2B11D02D2B17D10A9BAC
:1099700043F001030A93049B0133049312E00A9B12
:1099800043F002030A93049B013304930AE00A9B09
:1099900043F004030A93049B0133049302E0002381
:1099A0000C9300BF0C9B002BD3D1002309939DF88F
:1099B00037302A2B0CD1039B1B68191D039A1160A9
:1099C0001B68099A13440993049B013304931AE01A
:1099D000049B1B788DF837309DF837302F2B12D928
:1099E0009DF83730392B0ED8049B01330493099A24
:1099F00013469B0013445B001A469DF8373013440E
:109A0000303B0993D3E700230B93049B1B788DF81D
:109A100037309DF837302E2B1DD1049B0133049332
:109A2000049B1B788DF837309DF837302F2B12D9D7
:109A30009DF83730392B0ED8049B013304930B9AD1
:109A400013469B0013445B001A469DF837301344BD
:109A5000303B0B93E4E7049B1B788DF837309DF87F
:109A600037306C2B03D09DF83730682B07D1049B1F
:109A700001330493049B1B788DF83730EFE79DF892
:109A80003730252B00F0C480252BC0F2C680782B00
:109A900000F3C380582BC0F2C080583B202B00F24B
:109AA000BC8001A252F823F09D9B02001B9C020087
:109AB0001B9C02001B9C02001B9C02001B9C0200C2
:109AC0001B9C02001B9C02001B9C02001B9C0200B2
:109AD0001B9C02002D9B02004F9B02001B9C02005E
:109AE0001B9C02001B9C02001B9C02004F9B02005F
:109AF0001B9C02001B9C02001B9C02001B9C020082
:109B00001B9C02001B9C0200DD9B02001B9C0200B0
:109B10001B9C0200C19B02001B9C0200739B020065
:109B20001B9C02001B9C02009D9B0200039B1B6868
:109B3000191D039A11601B680C930C9B8DF81F3044
:109B40009DF81F3019460598FFF714FD66E0039B4A
:109B50001B68191D039A11601B680C930A9B0193E3
:109B6000099B00930B9B0A220C990598FFF722FE94
:109B700054E0039B1B68191D039A11601B680C932A
:109B80000C990A9B0193099B00930B9B0A22059851
:109B9000FFF778FD42E000BF4C5E0300039B1B68AB
:109BA000191D039A11601B680C930C990A9B019371
:109BB000099B00930B9B10220598FFF763FD2DE096
:109BC000039B1B68191D039A11601B6808930A9B6D
:109BD000099A08990598FFF7F3FC1FE0039B1B689F
:109BE000191D039A11601B680C9330210598FFF72B
:109BF000C1FC78210598FFF7BDFC0C990023019367
:109C000008230093082310220598FFF73BFD05E089
:109C100025210598FFF7AEFC00E000BF049B01334F
:109C2000049305E09DF8373019460598FFF7A2FC2C
:109C3000049B1B78002B7FF477AE00E000BF059BF0
:109C40001B7B002B04D00598FFF738FC00E000BF19
:109C50000FB05DF804FB00BF00B583B00190019820
:109C6000FFF754FB0346184603B05DF804FB00B54C
:109C70008BB001900091019B1B8A043B0793009AD3
:109C8000079B1344DA1C079BB2FBF3F38DF81B30E0
:109C90000198FFF797FB0590059B002B01D100234E
:109CA00038E0059B00221A71059B01225A71079B1F
:109CB0009AB2059BDA80059B09939DF81B30013B06
:109CC0000493099B019A1A60002308931DE00198F0
:109CD000FFF778FB0390039B002B0ED0059B5B796D
:109CE0000133DAB2059B5A71099B039A1A60039BF0
:109CF000019A1A60039B099304E0059800F00EF89E
:109D0000002307E0089B01330893089A049B9A42BA
:109D1000DDD3059B18460BB05DF804FB00B58BB096
:109D20000190019B0793079B5B798DF81B30019B8A
:109D300008939DF81B30013B05930023099305E030
:109D4000089B1B680893099B01330993099A059B9B
:109D50009A42F5D3089B1B680493019B0893002348
:109D600009930BE0089B1B68039308990498FFF77D
:109D700071FB039B0893099B013309939DF81B30EA
:109D8000099A9A42EED300BF00BF0BB05DF804FB06
:109D900000B585B00190019B0393039B043301211F
:109DA0001846FFF735FA00BF05B05DF804FB00B5B3
:109DB00087B00190019B0593059B04330121184650
:109DC000FFF73EFA0346039303AB0493049B1B780F
:109DD000002B02D10198FFF7A1FF00BF07B05DF88B
:109DE00004FB000000B591B0039002910192009332
:109DF000039B002B03D14349B62006F0A5FC039B2F
:109E00000993039B0F93099BDB881A46099B5B7997
:109E100002FB03F3043B0893009A089B9A4203D386
:109E20003849C42006F090FC099BDB880793009B0F
:109E30001A1D079BB2FBF3F30E93009B0433079AA2
:109E4000B3FBF2F2079901FB02F29B1A0D93019BFF
:109E50001A68009B1344089A9A4203D2089A009BFE
:109E6000D31A01E0019B1B680C93019B0C9A1A60AA
:109E700005E00F9B1B680F930E9B013B0E930E9BFF
:109E8000002BF6D100230B93079A0D9BD31A0A934C
:109E90000A9A0C9B934228BF13460A932AE0029A1F
:109EA0000B9B134406930F9A0D9B134404330593A5
:109EB0009DF84830002B05D00A9A059906980BF0BA
:109EC00081F804E00A9A069905980BF07BF80023C4
:109ED0000D930F9B1B680F930C9A0A9BD31A0C933C
:109EE0000B9A0A9B13440B93079A0C9B934228BF2F
:109EF00013460A930C9B002BD1D100BF00BF11B0B9
:109F00005DF804FBC05E030000B589B005900491C4
:109F100003920293039B079307AA00230093029BDB
:109F200004990598FFF75EFF079B039A9A4203D0B6
:109F30000349F62006F008FC00BF09B05DF804FBF9
:109F4000C05E030000B589B00590049103920293AE
:109F5000039B079307AA01230093029B049905988A
:109F6000FFF740FF079B039A9A4204D004494FF43D
:109F7000807006F0E9FB00BF09B05DF804FB00BF8C
:109F8000C05E030082B003468DF807309DF90730AC
:109F9000002B0DDB9DF8073003F01F0206499DF9E9
:109FA00007305B09012000FA02F2603341F82320F8
:109FB00000BF02B0704700BF00E100E000B583B011
:109FC0000190019B002B03D10649722006F0BCFBD7
:109FD000019B00221A60BFF35F8F00BF00BF03B078
:109FE0005DF804FB7C5F030041DF704700BF18464B
:109FF00000B585B000238DF807300DF10703184632
:10A00000FEF722FBF1EE103A0393039B23F09F032C
:10A010000293029BE1EE103A00BFBFF35F8F00BFD7
:10A020002620FFF7AFFF9DF807301846FEF722FB0A
:10A03000039B03F00703002B03D004497D2006F0A7
:10A0400083FB00BF05B05DF804FB00BFC05F0300E9
:10A0500008B5064B00221A700548FFF7AFFF054907
:10A06000054800F04BF80023184608BD9C3200203C
:10A07000983200202C600300A032002000B583B08D
:10A08000FFF7B6FF0AF068FB0346002B0ED0FFF780
:10A09000ABFF0190019B002B0BD0019B022B08D042
:10A0A00006494FF4B07006F04FFB02E020BF40BFFE
:10A0B00020BF00BF03B05DF804FB00BFC05F03001A
:10A0C00082B00190019B9B6800229A60019B9B6873
:10A0D00000221A61019B9B6800225A61019B9B68C8
:10A0E0000022DA60019B9B6800225A60019B9B68FA
:10A0F00000221A6000BF02B07047000000B583B0B4
:10A1000001900091019B002B03D11049502006F0D3
:10A110001BFB009B002B03D10C49512006F014FBC4
:10A12000019B009A1A60019B1B681A68019B5A6088
:10A13000019B5A68019B1B685B689A4202D1019B94
:10A1400000225A6000BF03B05DF804FB38600300D2
:10A1500000B583B00190019B002B03D1144963200B
:10A1600006F0F2FA019B1B68002B03D11049642012
:10A1700006F0EAFA019B5B68002B14D0019B5B6838
:10A180001A46019B1B689B6813441A46019B5A6040
:10A19000019B5A68019B1B685B689A4204D1019B32
:10A1A00000225A6000E000BF03B05DF804FB00BF6E
:10A1B0003860030000B585B001900091019B002B31
:10A1C00003D118493A2006F0BFFA009B002B03D1B7
:10A1D00014493B2006F0B8FA019B5B6803930FE03B
:10A1E000019B9B68039A12680099104698470346A2
:10A1F00083F00103DBB2002B07D1039B1B680393A1
:10A20000039B1B68002BEBD100E000BF039B1A6887
:10A21000009B1A60039B009A1A6000BF05B05DF8AE
:10A2200004FB00BFC460030000B585B00190019B32
:10A23000002B03D10C49512006F086FA019B5B6884
:10A240001B680393019B5B681B68002B06D0019B76
:10A250005B681A68019B5B6812681A60039B18466A
:10A2600005B05DF804FB00BFC460030000B583B017
:10A270000190019B002B03D105495D2006F064FA93
:10A28000019B5B681B68184603B05DF804FB00BFC8
:10A29000C460030000B585B001900091019B002BC4
:10A2A00003D11649692006F04FFA009B002B03D119
:10A2B00012496A2006F048FA00238DF80B30019B02
:10A2C0005B6803930FE0039B1B68009A9A4207D1D7
:10A2D000009B1A68039B1A6001238DF80B3006E07F
:10A2E000039B1B680393039B1B68002BEBD19DF81A
:10A2F0000B30184605B05DF804FB00BFC4600300D6
:10A3000000B585B00190019800F00EF80390039B12
:10A31000002B01D0039B00E0024B184605B05DF80E
:10A3200004FB00BF3061030086B00190164B05931B
:10A33000164B04931FE0049A059BD31ADB10DA0F27
:10A3400013445B10DB00059A13440393039B1B68C3
:10A350000293029A019B9A4202D9039B04930AE05A
:10A36000029A019B9A4203D2039B0833059302E0B1
:10A37000039B5B6804E0059A049B9A42DBD30023AD
:10A38000184606B0704700BF3065030058660300EA
:10A3900000B583B001900091019BDBB21846FEF737
:10A3A000AFF8019B184603B05DF804FB82B0019042
:10A3B0000B46ADF80230BDF80230019A134418463E
:10A3C00002B0704782B00190019BD3F81035DBB228
:10A3D000184602B0704782B001900B468DF80330EA
:10A3E0009DF80320019B02F5A87253F8223018460D
:10A3F00002B0704782B00190019B9B0003F5A073EF
:10A400009BB2184602B07047F0B587B001900B467A
:10A410008DF803309DF803300593019B00221E4602
:10A4200017464FF000024FF000033B0143EA16735A
:10A4300032010599C1F12006A1F1200022FA01F4B0
:10A4400003FA06F6344323FA00F0044323FA01F535
:10A45000CDE90245DDE90223012B04D3044940F292
:10A46000B92006F071F9029B184607B0F0BD00BF95
:10A470005866030010B582B001900091019B5B7992
:10A480001A46009B934204D3094940F2711006F02A
:10A490005BF9019B1C680098FFF7ACFF0346194667
:10A4A0002046FFF783FF0346184602B010BD00BFE9
:10A4B0008866030000B583B001900B468DF8033029
:10A4C000019B1B689DF8032011461846FFF783FF88
:10A4D0000346184603B05DF804FB00B583B0019055
:10A4E0000091019B1B681846FFF76CFF0346194655
:10A4F0000098FFF789FF0346184603B05DF804FB98
:10A5000000B583B00190019B1B68184600F04CF821
:10A510000346002B04D105494FF4F67006F014F9F8
:10A520004FF0A043184603B05DF804FBC466030077
:10A5300000B585B0019001AB1846FFF7E1FF03902D
:10A54000019B012202FA03F31946039800F018F860
:10A5500000BF05B05DF804FB00B585B0019001AB0C
:10A560001846FFF7CDFF0390019B012202FA03F387
:10A570001946039800F00EF800BF05B05DF804FB23
:10A5800082B001900091019B009AC3F8082500BF9A
:10A5900002B0704782B001900091019B009AC3F80D
:10A5A0000C2500BF02B0704784B00190019B5B098D
:10A5B000029300230393029B002B03D14FF0FF3340
:10A5C000039300BF019B03F01F030193039A019BB8
:10A5D00022FA03F303F00103002B14BF012300232D
:10A5E000DBB2184604B0704782B001900B468DF87C
:10A5F000033000BF02B0704700B585B00190019BE9
:10A600005B681B791A461A4B9B5C8DF80E30012350
:10A610008DF80F309DF80E30FF2B20D09DF80E30B6
:10A62000FE2B1FD0019B5B689DF80E20114618463B
:10A63000FFF740FF0246019B5B681B7919460D4BF3
:10A6400053F821309A420DD1019B5B681B791A4661
:10A65000074BFF21995400238DF80F3002E00023AF
:10A660008DF80F309DF80F30184605B05DF804FBEB
:10A67000AC320020B432002000B583B00190019BC1
:10A680005B680221184604F0DBFF00BF03B05DF8F1
:10A6900004FB00B583B00190019B5B680221184662
:10A6A00005F008F800BF03B05DF804FB00B587B003
:10A6B00003460091ADF80630009B049301238DF80A
:10A6C000173000238DF816303AE09DF816302649F1
:10A6D000049A52000A4413441B78DBB2002B2AD0A0
:10A6E0009DF816302049049A52000A441A44127800
:10A6F000D2B2013AD0B21C49049A52000A4413441F
:10A7000002461A709DF816301749049A52000A44FE
:10A7100013441B78DBB2002B0AD1144A049B52F875
:10A7200023301B680393039BDB690498984702E07E
:10A7300000238DF817309DF8163001338DF8163050
:10A740009DF81630012BC0D99DF81730002B06D08C
:10A75000064A049B52F823301846FFF79AFF00BFC1
:10A7600007B05DF804FB00BFC8320020D4320020DF
:10A7700000B585B00190019B1B680293029B93F882
:10A780002030184605F056F900238DF80F306CE0A4
:10A7900000238DF80E3031E09DF80F209DF80E104B
:10A7A000029813465B0013449B0003440B44083398
:10A7B0001B78FF2B1DD09DF80F209DF80E100298DE
:10A7C00013465B0013449B0003440B4408331B787F
:10A7D000184605F02FF99DF80F209DF80E100298ED
:10A7E00013465B0013449B0003440B440833FF22D1
:10A7F0001A709DF80E3001338DF80E309DF80E3032
:10A80000012BC9D99DF80F20029913465B00134410
:10A810009B000B441B68B3F1FF3F16D09DF80F203F
:10A82000029913465B0013449B000B441B681846B7
:10A8300002F01EFC9DF80F20029913465B001344A2
:10A840009B000B444FF0FF321A609DF80F200299D5
:10A8500013465B0013449B000B440B3300221A7019
:10A860009DF80F3001338DF80F309DF80F30012B1C
:10A870008ED9019B5B68184604F0CCFD00BF05B083
:10A880005DF804FB30B587B001900B468DF80330BE
:10A890001346ADF80030019B1B6805939DF803201B
:10A8A00013465B0013449B00059A134404939DF8E0
:10A8B00003308DF80F30059B93F82030184605F0D3
:10A8C00058F9BDF80030002B11D1049B5B7A184673
:10A8D00005F04FF9049B1B7A184605F015F9019B0A
:10A8E0005B681B791A46484BFF21995485E0BDF8F7
:10A8F0000020059B9B699A4215D3059B9B69ADF887
:10A900000030049B1B7A184605F033F9049B5B7AF0
:10A91000184605F0F9F8019B5B681B791A463A4B1B
:10A92000FF21995469E0049B5A68059B9B699A42F0
:10A9300049D0049B5B68002B45D0BDF80020049BE8
:10A940005B689A423FD2019B5868049B5A68002377
:10A95000032104F00DFE059B93F82040019B5B68EA
:10A9600003211846FFF786FD0546049B9B7A002BC2
:10A9700006D0049B1B68184602F058FC034605E00D
:10A98000049B1B68184602F015FC03461A4629462C
:10A99000204605F080F8059B93F82030184605F016
:10A9A000B3F8019B5B681B791946174A9DF8033081
:10A9B0005354019B5B681B791946BDF80030134A5C
:10A9C00042F8213006E0019B5B681B791A460E4B6A
:10A9D000FF219954019B5868BDF800209DF80F1085
:10A9E000002304F0C5FD049B1B7A184605F08CF883
:10A9F000049B5B7A184605F087F8BDF80020049B9D
:10AA00005A6000BF07B030BDAC320020B432002025
:10AA100000B585B001900B468DF803301346ADF8B4
:10AA20000030019B1B6803939DF8032013465B00D5
:10AA300013449B00039A134402939DF80330012BA7
:10AA400004D92C4940F25B2005F07EFE029BDB7AA4
:10AA5000012B04D027494FF4177005F075FE039BB6
:10AA600093F82130022B01D008233EE0BDF80020EE
:10AA7000029B5B689A420CD1039BDB69002B06D0DA
:10AA8000039BDB69019A52681279104698470023AC
:10AA90002BE00198FFF7B0FD0346002B01D01123F6
:10AAA00023E0019B5B681B791A46134BFE219954E6
:10AAB000BDF800209DF8033019460198FFF7E2FE2B
:10AAC000019B1B68DB69002B0ED0019B5B681B7927
:10AAD0001A469DF80330094952000A4413440222E1
:10AAE0001A700198FFF7C8FD0023184605B05DF8FD
:10AAF00004FB00BFF4660300AC320020C832002023
:10AB000084B00190019B1B680393039B9B699BB2DC
:10AB1000184604B07047000000B585B001900B46A0
:10AB20008DF803301346ADF800300198FFF7E8FFC9
:10AB300003461A46BDF8003002FB03F3084AA2FBA5
:10AB400003235B090393039B9AB29DF803301946D4
:10AB50000198FFF75DFF0346184605B05DF804FB5A
:10AB60001F85EB5110B58CB0039001921A460B462D
:10AB70008DF80B3013468DF80A309DF80B30012B01
:10AB800004D968494FF42B7005F0DEFD039B1B6868
:10AB90000A939DF80B2013465B0013449B000A9A0E
:10ABA000134409930A9B93F82130002B01D008230A
:10ABB000B4E0099B00225A60099B9DF80A209A7212
:10ABC00003238DF81430039B19689DF80B2013465E
:10ABD0005B0013449B000B440A331B78002B0CBF13
:10ABE00001230023DBB28DF8153001238DF81630D8
:10ABF00005AB1946019802F0D1F90890089B002B8B
:10AC000001D004238AE09DF80B200A9913465B00CB
:10AC100013449B000B44019A1A609DF80A30002BE4
:10AC200003D00198FFF798FC02E00198FFF780FC41
:10AC300000238DF82F3011E09DF82F300833099A4A
:10AC40001344184604F09CFE0346002B01D0042355
:10AC500064E09DF82F3001338DF82F309DF82F30B0
:10AC6000012BE9D9099B1B7A184604F082FF099B46
:10AC70005B7A184604F07DFF9DF80A30002B06D061
:10AC8000099B1B68184602F0D1FA034605E0099BB0
:10AC90001B68184602F08EFA034607939DF80A30A7
:10ACA000002B06D0099B1B68184602F083FA034666
:10ACB00005E0099B1B68184602F0B8FA03460693A4
:10ACC000099B1C7A039B5B689DF80B201146184674
:10ACD000FFF7D0FB0346079A1946204604F0DBFE37
:10ACE000099B5C7A039B5B6802211846FFF7C2FB55
:10ACF0000346069A1946204604F0CDFE099B012220
:10AD0000DA72039B5B681B791A469DF80B30064983
:10AD100052000A44134400221A70002318460CB053
:10AD200010BD00BFF4660300C832002084B001905B
:10AD3000002303930923029305E0019B5B08019321
:10AD4000039B01330393019BB3F5805F03D3039A05
:10AD5000029B9A42F1D3074B1B78002B04D0039B34
:10AD6000002B01D101230393039BDBB2184604B0EF
:10AD7000704700BFA832002000B58FB00590049145
:10AD80000392059B002B04D18F4940F2113005F04E
:10AD9000DBFC049B002B01D10B2310E1059B1B68FE
:10ADA0000C930C9B93F82130002B01D0082306E173
:10ADB00004F016FF0B900B9B002B04D00B9B852BF4
:10ADC00001D00423FBE002F0DDF8034683F0010329
:10ADD000DBB2002B07D002F071F80B900B9B002B1D
:10ADE00001D00323EBE0794B1B6803F0F003302B19
:10ADF00003D1774B00221A7002E0754B01221A70C2
:10AE00000C9BFF2283F8202000238DF8373030E0A0
:10AE10009DF837200C9913465B0013449B000B44AC
:10AE20000B3300221A709DF837200C9913465B00F3
:10AE300013449B000B440833FF221A709DF83720FF
:10AE40000C9913465B0013449B000B440933FF220B
:10AE50001A709DF837200C9913465B0013449B0031
:10AE60000B444FF0FF321A609DF8373001338DF8F4
:10AE700037309DF83730012BCAD90C9B2033184648
:10AE800004F07EFD0346002B04D00598FFF770FC0C
:10AE9000042394E000238DF836302CE09DF8362012
:10AEA000049B53F82230B3F1FF3F1FD09DF83620AA
:10AEB000049B53F822009DF83630049A13441B7A01
:10AEC0009DF8361002460598FFF74CFE0B900B9B41
:10AED000002B04D00598FFF74BFC0B9B6FE09DF80F
:10AEE0003630002219460598FFF792FD9DF836305E
:10AEF00001338DF836309DF83630012BCED9049BC6
:10AF00001B691846FFF712FF03468DF82B309DF89A
:10AF10002B308DF81C3000238DF81D3000238DF868
:10AF20001E3007238DF81F30059B5B681B79089343
:10AF3000059B5B6807A9274A184604F067F90B9040
:10AF40000B9B002B04D00598FFF712FC0B9B36E0FF
:10AF5000059B5A68049B1B6919461046FFF7BDFA0A
:10AF600009900C9B099A9A61059B5B68184604F04E
:10AF7000DDFA059B5868012300930423099A0221F6
:10AF800004F02FFB059B5B680221184604F092FB3E
:10AF90000C9B039ADA61059B5B681B7919460E4A84
:10AFA000059B42F82130059B5B681B791A460B4BC9
:10AFB000FF2199540C9B012283F82120002318467D
:10AFC0000FB05DF804FB00BFF4660300E80F00F06B
:10AFD000A8320020ADA60200D4320020AC320020FE
:10AFE00000B587B00190019B1B680493049B93F804
:10AFF0002130002B04D1304940F2973005F0A4FBFA
:10B000000023059334E0059A13465B0013449B002C
:10B01000049A13440393019B5B681B79274A5B00E6
:10B020001A44059B134400221A70039BDB7A002B01
:10B030001BD0039B1868019B1968059A13465B0097
:10B0400013449B000B440A331B78002B0CBF0123D5
:10B050000023DBB2194602F0FDF8039B1B6818467B
:10B0600002F04AF8039B00225A60059B01330593C6
:10B07000059B012BC7D9019B5B681B791A46104BB6
:10B08000FF219954019B5B681B6801211846FFF75B
:10B09000ABFA019B5B68184604F048FA019B5B68B9
:10B0A000184604F0E7F9049B022283F8212000BF30
:10B0B00007B05DF804FB00BFF4660300C83200204F
:10B0C000AC320020BFF34F8F00BF064BDB6803F4A8
:10B0D000E0620449044B1343CB60BFF34F8F00BFC2
:10B0E00000BFFDE700ED00E00400FA0582B01D4B53
:10B0F0001B68B3F1FF3F0AD11B4B1B68DBB2019306
:10B100001A4B1B681B0903F00F03009305E0154B56
:10B110001B680193164B1B680093019B062B1DD1E6
:10B12000009B033B042B17D801A252F823F000BF69
:10B1300045B1020049B102004DB1020051B1020017
:10B1400055B1020001230AE0012308E0012306E0D3
:10B15000012304E0012302E0012300E0002318465C
:10B1600002B0704730010010E00F00F0E80F00F06F
:10B170003401001082B0174B1B68DBB20193164BF1
:10B180001B681B0903F00F030093019B062B1DD1C5
:10B19000009B033B042B17D801A252F823F000BFF9
:10B1A000B5B10200B9B10200BDB10200C1B10200E7
:10B1B000C5B1020001230AE0002308E0002306E0F5
:10B1C000002304E0002302E0002300E000231846EF
:10B1D00002B07047E00F00F0E80F00F082B01D4BA6
:10B1E0001B68B3F1FF3F0AD11B4B1B68DBB2019315
:10B1F0001A4B1B681B0903F00F03009305E0154B66
:10B200001B680193164B1B680093019B062B1DD1F5
:10B21000009B033B042B17D801A252F823F000BF78
:10B2200035B2020039B202003DB2020041B2020062
:10B2300045B2020001230AE0012308E0012306E0F1
:10B24000012304E0012302E0012300E0002318466B
:10B2500002B0704730010010E00F00F0E80F00F07E
:10B260003401001082B0174B1B68DBB20193164B00
:10B270001B681B0903F00F030093019B062B1DD1D4
:10B28000009B033B042B17D801A252F823F000BF08
:10B29000A5B20200A9B20200ADB20200B1B2020032
:10B2A000B5B2020001230AE0002308E0002306E013
:10B2B000002304E0002302E0002300E000231846FE
:10B2C00002B07047E00F00F0E80F00F082B01D4BB5
:10B2D0001B68B3F1FF3F0AD11B4B1B68DBB2019324
:10B2E0001A4B1B681B0903F00F03009305E0154B75
:10B2F0001B680193164B1B680093019B062B1DD105
:10B30000009B033B042B17D801A252F823F000BF87
:10B3100025B3020029B302002DB3020031B30200AD
:10B3200035B3020001230AE0012308E0012306E00F
:10B33000012304E0012302E0012300E0002318467A
:10B3400002B0704730010010E00F00F0E80F00F08D
:10B350003401001082B0174B1B68DBB20193164B0F
:10B360001B681B0903F00F030093019B062B1DD1E3
:10B37000009B033B042B17D801A252F823F000BF17
:10B3800095B3020099B302009DB30200A1B302007D
:10B39000A5B3020001230AE0002308E0002306E031
:10B3A000002304E0002302E0002300E0002318460D
:10B3B00002B07047E00F00F0E80F00F082B0174BCA
:10B3C0001B68DBB20193164B1B681B0903F00F03CC
:10B3D0000093019B062B1DD1009B033B042B17D828
:10B3E00001A252F823F000BFFDB3020001B4020035
:10B3F00005B4020009B402000DB4020001230AE002
:10B40000002308E0002306E0002304E0002302E01C
:10B41000002300E00023184602B07047E00F00F060
:10B42000E80F00F082B01D4B1B68B3F1FF3F0AD15B
:10B430001B4B1B68DBB201931A4B1B681B0903F003
:10B440000F03009305E0154B1B680193164B1B6817
:10B450000093019B062B1DD1009B033B042B17D8A7
:10B4600001A252F823F000BF7DB4020081B40200B3
:10B4700085B4020089B402008DB4020000230AE002
:10B48000002308E0012306E0012304E0012302E099
:10B49000012300E00023184602B07047300100107D
:10B4A000E00F00F0E80F00F03401001082B01D4BF7
:10B4B0001B68B3F1FF3F0AD11B4B1B68DBB2019342
:10B4C0001A4B1B681B0903F00F03009305E0154B93
:10B4D0001B680193164B1B680093019B062B1DD123
:10B4E000009B033B042B17D801A252F823F000BFA6
:10B4F00005B5020009B502000DB5020011B5020044
:10B5000015B5020001230AE0012308E0012306E04B
:10B51000012304E0012302E0012300E00023184698
:10B5200002B0704730010010E00F00F0E80F00F0AB
:10B530003401001082B01D4B1B68B3F1FF3F0AD1EC
:10B540001B4B1B68DBB201931A4B1B681B0903F0F2
:10B550000F03009305E0154B1B680193164B1B6806
:10B560000093019B062B1DD1009B033B042B17D896
:10B5700001A252F823F000BF8DB5020091B5020080
:10B5800095B5020099B502009DB5020001230AE0BD
:10B59000012308E0012306E0012304E0012302E087
:10B5A000012300E00023184602B07047300100106C
:10B5B000E00F00F0E80F00F03401001082B0154BEE
:10B5C0001B680193144B1B680093019B062B1DD134
:10B5D000009B033B042B17D801A252F823F000BFB5
:10B5E000F5B50200F9B50200FDB5020001B6020092
:10B5F00005B6020000230AE0002308E0002306E06D
:10B60000012304E0012302E0012300E000231846A7
:10B6100002B07047300100103401001082B0154BA9
:10B620001B680193144B1B680093019B062B1DD1D3
:10B63000009B033B042B17D801A252F823F000BF54
:10B6400055B6020059B602005DB6020061B60200AE
:10B6500065B6020000230AE0002308E0002306E0AC
:10B66000002304E0012302E0012300E00023184648
:10B6700002B07047300100103401001008B5FFF728
:10B68000CDFF0346002B07D04FF010234FF0804230
:10B69000D3F80832C2F8583500BF08BD00BF044BCC
:10B6A000D3F80034002BFAD000BF00BF704700BFB2
:10B6B00000E0014000B583B00190054A019BC2F84B
:10B6C0000435FFF7EBFF00BF03B05DF804FB00BFDC
:10B6D00000E00140024B034A1A6000BF704700BF00
:10B6E000382B00200090D00308B5FFF7FFFC03467D
:10B6F000002B06D0964B1B681B0A964A03F01F03CB
:10B700001360FFF737FD0346002B02D0924B934A9C
:10B710001A60FFF763FD0346002B06D0904B1B68B1
:10B720005B0B904A03F007031360FFF79BFD034692
:10B73000002B05D08C4BDB688B4A23F08073D360E1
:10B74000FFF7C4FD0346002B0ED04FF080430022CC
:10B75000C3F80C214FF080430022C3F810214FF0B2
:10B7600080430022C3F83825FFF7F4FD0346002B81
:10B7700002D07E4B03221A60FFF720FE0346002B07
:10B780000BD07B4B05221A607A4B01221A607A4B50
:10B7900000221A60794B3F221A60FFF743FE0346EE
:10B7A000002B76D04FF08053754AD3F80434C2F89A
:10B7B00020354FF08053724AD3F80834C2F824354C
:10B7C0004FF080536E4AD3F80C34C2F828354FF04E
:10B7D00080536B4AD3F81034C2F82C354FF08053A5
:10B7E000674AD3F81434C2F830354FF08053644AB6
:10B7F000D3F81834C2F834354FF08053604AD3F888
:10B800001C34C2F840354FF080535D4AD3F82034E1
:10B81000C2F844354FF08053594AD3F82434C2F863
:10B8200048354FF08053564AD3F82834C2F84C3587
:10B830004FF08053524AD3F82C34C2F850354FF0B1
:10B8400080534F4AD3F83034C2F854354FF0805308
:10B850004B4AD3F83434C2F860354FF08053484A2D
:10B86000D3F83834C2F864354FF08053444AD3F8E3
:10B870003C34C2F868354FF08053414AD3F8403425
:10B88000C2F86C354FF080533D4AD3F84434C2F8C7
:10B890007035FFF70BFE0346002B05D0394B1B68B4
:10B8A000394A03F04F031360FFF744FE0346002BB1
:10B8B0000DD04FF08043D3F8003403F00103002B88
:10B8C00005D04FF080436FF00102C3F80024FFF76A
:10B8D00075FE0346002B05D02C4B1B682B4A43F406
:10B8E000806313602A4BD3F88830294A43F47003ED
:10B8F000C2F88830BFF34F8F00BFBFF36F8F00BF18
:10B90000FFF7BCFE4FF01023D3F80032002B05DB0D
:10B910004FF01023D3F80432002B15DA0120FFF783
:10B92000C9FE4FF010231522C3F80022FFF7B6FE20
:10B930004FF010231522C3F80422FFF7AFFE0020BA
:10B94000FFF7B8FEFFF7BEFBFFF7C4FE00BF08BD60
:10B95000240300104035014074C007400DF0ADBA1B
:10B96000440200103C050040F0ED00E0A00500405E
:10B9700010560040885600401856004014560040AB
:10B9800000C0004058020010E40E00403C17004088
:10B9900000ED00E000B583B00190019B1B681846E4
:10B9A00000F09DF80346002B04D105494FF4F670D2
:10B9B00004F0CAFE4FF0A043184603B05DF804FB44
:10B9C0005467030000B585B0019001AB1846FFF73E
:10B9D000E1FF0390019B012202FA03F31946039849
:10B9E00000F069F800BF05B05DF804FB00B585B054
:10B9F000019001AB1846FFF7CDFF0390019B012298
:10BA000002FA03F31946039800F05FF800BF05B08F
:10BA10005DF804FB00B585B0019001AB1846FFF757
:10BA2000B9FF0390039BD3F804350293029BDA43DA
:10BA3000019B012101FA03F31A40039BC3F8082577
:10BA4000019B01229A40029B1A40039BC3F80C25DC
:10BA500000BF05B05DF804FB00B583B00190009114
:10BA6000009B002B03D10198FFF7C0FF02E0019873
:10BA7000FFF7A8FF00BF03B05DF804FB00B585B079
:10BA8000019001AB1846FFF785FF0390039800F083
:10BA90000AF80246019B22FA03F303F00103184659
:10BAA00005B05DF804FB82B00190019BD3F804352A
:10BAB000184602B0704782B001900091019B009A35
:10BAC000C3F8082500BF02B0704782B00190009112
:10BAD000019B009AC3F80C2500BF02B0704784B0E8
