:020000022000DC
:1060000000000120756302005D6302005F6302000F
:106010006163020063630200656302000000000028
:1060200000000000000000000000000067630200A4
:1060300069630200000000006B6302006D630200F0
:10604000998F02006F630200859502006F63020062
:106050006F6302006F630200399402006F630200F5
:1060600065A1020075A1020085A102006F63020014
:106070006F6302006F6302006F6302006F630200D0
:106080006F630200A57902006F6302006F63020074
:106090006F6302006F63020001C602006F630200BB
:1060A0006F6302006F6302006F6302006F630200A0
:1060B0006F6302006F630200000000000000000038
:1060C0006F6302006F6302006F6302006F63020080
:1060D0006F6302006F6302006F6302000000000044
:1060E00000000000000000000000000000000000B0
:1060F00000000000000000000000000000000000A0
:10610000000000000000000000000000000000008F
:10611000000000000000000000000000000000007F
:10612000000000000000000000000000000000006F
:10613000000000000000000000000000000000005F
:10614000000000000000000000000000000000004F
:10615000000000000000000000000000000000003F
:10616000000000000000000000000000000000002F
:10617000000000000000000000000000000000001F
:10618000000000000000000000000000000000000F
:1061900000000000000000000000000000000000FF
:1061A00000000000000000000000000000000000EF
:1061B00000000000000000000000000000000000DF
:1061C00000000000000000000000000000000000CF
:1061D00000000000000000000000000000000000BF
:1061E00000000000000000000000000000000000AF
:1061F000000000000000000000000000000000009F
:10620000354936480A1A02D0072291438D4634494F
:1062100034480A1A06D00722914381F309880222E2
:1062200082F3148830483149314A00F044F831484B
:106230003149324A00F03FF831483249324A00F0E1
:106240003AF832483249334A00F035F83248334997
:10625000334A00F030F833483349344A00F02BF821
:1062600033483449344A00F026F83448344900228F
:1062700000F02CF833483449002200F027F8334866
:106280003349091A082902DB002202604160314AC1
:1062900090471F481F49884205D00268043003B464
:1062A000904703BCF7E700208646EC46002000211B
:1062B000294A9047FEE7884207D0521A05D0037852
:1062C00001300B700131013AF9D17047884202D098
:1062D00002700130FAE770470000012000E0002062
:1062E00000000120000001205CE30200D82A002009
:1062F000E42B0020D0630200D063020058D30200D8
:106300005CE30200D82A0020D82A00206CD40200C6
:106310006CD402006CD402006CD402006CD4020075
:106320006CD402006CD402006CD402005CE3020066
:1063300068E40200E42B0020E42B0020E42B002082
:10634000FC3E0020FC3E0020FC3E0020FC3E0020E5
:10635000FC5E00209D63020019AC0200FEE7FEE730
:10636000FEE7FEE7FEE7FEE7FEE7FEE7FEE7FEE705
:1063700000F002B8FFF7FCBF0F484FF00701884359
:1063800085460E4880470E48016841F4700101605F
:10639000BFF34F8FBFF36F8FFFF732BF09480A4932
:1063A0000A4A884207D0521A05D0037801300B7090
:1063B0000131013AF9D170470000012079880200CB
:1063C00088ED00E06CD40200D82A0020D82A0020F2
:1063D0007047000007B5044B0093044A402300F0C7
:1063E00032F803B05DF804FBF1630200E52B0020F6
:1063F0002DE9F84388461446B2B10F4B0F4E0325E2
:10640000002743F00109224608EB0701002004F0B1
:10641000C7FD0744241A48B933782BB14FF47A40AA
:10642000C847013D02D13570BDE8F88301233370C0
:10643000002CE8D1F8E700BF70D40200E42B002064
:10644000704704F0DDBDF0B595B01D461646084610
:106450000C4601F055FE1A9B0D93CDE90865002509
:106460002B46082205A920460A958DF82C500C953C
:1064700001F062FE079B0293069B03939DF8143084
:106480008DF8115003F00302012A1DD1BDF814202C
:10649000059DC3F3C203C2F383168DF81030B2001A
:1064A00008230EA9204601F047FEC5F3952508AB49
:1064B0000093324602AB0EA9284600F033FB20467B
:1064C00001F022FE15B0F0BD022AF8D1BDF8165039
:1064D000C3F3C203C5F389158DF810300827082DC2
:1064E0002E4628BF08263B4632460EA9204601F01C
:1064F00023FEAD1B08AB02AA31460EA8374400F0BC
:1065000075FB002DEBD1DAE708B5FFF79AFF0448D9
:10651000042100F071FA034B01225A7108BD00BF3B
:106520005CD40200D82A0020037813F0040216D0AD
:1065300003F00303012B03D0022B09D00120704785
:106540000A6800880232C0F3831002440A60F5E74B
:106550000B684288023303EB92130B60EEE71046A0
:10656000704700002DE9F04FDFF81CA187B00F46FF
:1065700000230446861C0DF1070015468DF80730F0
:1065800001F0A2F8DAF804203A60DAF8083003F5EE
:1065900080739B1A0AF21C470AF583690AF21448B1
:1065A000B3421AD30020002D69D004F00F039B01E1
:1065B00043F0050363F30F00DAF80430DAB2033274
:1065C00033444AF822009DF80700CAF8043001F06D
:1065D0009FF8012007B0BDE8F08F0121384601F097
:1065E000BEFA484601F0D3FA404601F0D0FADAF894
:1065F00008000290C0B203300AEB800002A9FFF746
:1066000093FF029B30BBDAB20AEB8202D16803919E
:106610009A1C0133DBB20AEB83030292D3F80CB06D
:1066200001F00303012B22D0022B15D083464046F4
:1066300001F0B0FA10B1029BCAF80830594638464A
:1066400001F08DFADAF80830DAF8042003F58073E7
:106650009B1AA5E7D8B2CEE7BDF80E30C3F3891375
:1066600003334FEA1B4B02EB93030293DFE7BDF8C2
:106670000C30C3F383134FEA1B4B1344F5E7A40517
:1066800044F0060098E700BFF82C0020064B0748AE
:1066900010B500221A7001F0ECFC044610B9044851
:1066A00001F094FD204610BDF82C0020B8D3020064
:1066B000ACD4020030B50A4C71B10A4A0A49121B27
:1066C000D20800239A4201D1002030BD31F8235076
:1066D000854202D00133F5E7034654F83300F4E76E
:1066E000CCD302005CD40200D82A0020094B013927
:1066F00003EBC000032909D8DFE801F00A02040611
:106700000420704700797047407970470020704737
:1067100002207047CCD3020070470000034BD3E93E
:106720000130C31A58425841704700BFF82C00206E
:106730002DE9F04186B0FFF7F1FF0546002840F053
:10674000ED80774CC4F81804BFF34F8FA368029311
:10675000DBB2033304EB830002A9FFF7E5FE029BE3
:1067600018B1D4F81824002A5AD0DAB2991C01338F
:1067700004EB8202DBB204EB8303D268DB68049390
:1067800002F00303022B0392029154D1BDF80E30A4
:106790006448C3F38917502F3E4628BF502606F1A0
:1067A000080166F38F13C1F30901ADF80E3001F053
:1067B00078FC0546002800F09C8001F0A1FC002335
:1067C000082203A9284601F0ADFC0299CB43DBB2B5
:1067D0000133C9B20331B6EB830F4FEA830204EBF6
:1067E000810125D95FFA82F80823A6EB080628461E
:1067F00001F098FCF6B208F108034B4903F0FC03E2
:106800003246284601F08EFC029B033703EB9707C4
:106810000297D4F81834002B43D1D4F8106453E015
:1068200062689A4294D8A260284606B0BDE8F0811A
:1068300008233246E5E7012B5BD1BDF80C3039481F
:10684000C3F38311062928BF062161F3891302319E
:1068500001F00F018900ADF80C3001F022FC054673
:10686000002846D001F04CFC0023082203A928464A
:1068700001F058FC0026BDF80C20C2F38312B300CF
:10688000964203F10803C4D202994A1CC9B20331EB
:10689000029204EB81010422284601F043FC0136F8
:1068A000E9E7284601F030FCFFF738FF80F00100EF
:1068B000C5B2B9E7F3685B7923B1336829461B6831
:1068C00030469847F3681E68002EF3D1284601F041
:1068D0001BFC0DF107008DF8076000F0F5FED4F801
:1068E00018340BB9029BA3609DF8070000F010FF5D
:1068F000DAE7D4F8104454B90C4B0D480D49C01ACE
:10690000C008000440F0020000F05EF8CCE7236805
:1069100020469B689847E3681C68ECE7002583E7FE
:10692000F82C0020B8D30200042D0020CCD30200A4
:1069300004D4020094D402002DE9F34704460E4625
:10694000924601A9012218469946FFF70BFE1C4FFB
:1069500010B3019D4FF00008AA1CC84508EB0201C6
:1069600025D11848002101F0CBF880F31000000475
:1069700040EA1440E4006B1C04F03804DBB2EDB2D2
:1069800044F0010407EB8303033544EA881444EA26
:106990008624D86047F825403B781BB1FFF7C8FE36
:1069A0000028FBD1FFF7B8FE02B0BDE8F087C9B2FE
:1069B00007EB81015AF82830CB6008F10108CCE7D9
:1069C000F82C00201431002000231A46FFF7B4BF32
:1069D00007B50123019201AAFFF7AEFF03B05DF8EE
:1069E00004FB07B5CDE9002302236A46FFF7A4FFA5
:1069F00003B05DF804FB000030B50F4CD4F8102450
:106A000003460020114631B9D96808714AB9C4F863
:106A100010340A6030BDC9680D79854206D0096816
:106A2000F1E7D26814680C601360F3E701300A28BC
:106A3000E8D14FF0FF30EDE7F82C002038B5084BD7
:106A40000125D3F810441D7004B938BDE3685D71A9
:106A5000236820465B689847E3681C68F4E700BF3A
:106A6000F82C002030B5C38885B004460D4633B1FC
:106A7000144A00921449154A284601F0EEF8217A8A
:106A800005291DD0637A4BB1A088FFF72FFE104B6C
:106A9000104953F82020284601F0DFF8227A0E4BE7
:106AA000A08853F8222003920021FFF703FE039AE7
:106AB0000A490346284605B0BDE8304001F0CDB88C
:106AC00005B030BDD8D40200C0D40200B8D4020052
:106AD00044D50200DDD4020068D50200E0D40200F3
:106AE00007B503460846197A052911D05B7A2BB100
:106AF000094A0A49019001F0B0F80198084901904B
:106B000001F0ABF8019803B05DF804EB01F09AB81E
:106B1000002AF8D0F2E700BFD8D40200DDD402008A
:106B2000D5D402002DE9F04385B01F460C9D00230B
:106B300095F80C902B7306460C469046294638462D
:106B4000FFF790FFB8F1060F09D8DFE808F004124C
:106B5000181F283340003146284601F07EF80022F5
:106B600029463846FFF7BCFF85F80C9005B0BDE814
:106B7000F08322683146284601F06FF8EFE7D4E948
:106B800000233146284601F068F8E8E7A36800933F
:106B90003146D4E90023284601F05FF8DFE7E368D7
:106BA0000193A36800933146D4E90023284601F0FD
:106BB00054F8D4E723690293E3680193A368009330
:106BC0003146D4E90023284601F047F8C7E7636956
:106BD000039323690293E3680193A368009331460A
:106BE000D4E90023284601F038F8B8E708292DE950
:106BF000F74F80460E4617461C463DD800251B7BA6
:106C00002573214610460193FFF72CFFDFF88CA077
:106C1000DFF88CB0AE4232D918F80520594620462C
:106C200001F01BF80135082DF4D11B49DFF874A0E1
:106C3000DFF874B0204601F010F84FF000094E451F
:106C400024D918F809507E2D1ED8284605F06CFF6F
:106C5000002814BF2A462E225946204600F0FDFF88
:106C600009F10109B9F1080FE9D10122214638469D
:106C7000FFF736FF019B237303B0BDE8F08F514649
:106C8000204600F0EAFFCDE72E22E5E751462046F8
:106C900000F0E3FFE4E700BFF4D40200F0D4020008
:106CA000EAD40200F2D40200F6D40200C30710B501
:106CB00007D4F023054A4008145C234019431154BB
:106CC00010BD0901C9B20F23F4E700BFC031002095
:106CD00030B5094B1C78094B196800239C4202DC33
:106CE0000022104630BD11F83350854201EBC3023B
:106CF000F7D00133F2E700BFB0310020D0310020DF
:106D000013B504460191FFF7E3FF38B143682BB197
:106D10000199204602B0BDE81040184702B010BDEE
:106D2000034B044819680022490800F087BA00BFE5
:106D3000B4310020E02A002010B5C0B2FFF7C8FF30
:106D40000446007802F06EFB63785A1E53425341AA
:106D5000834208D1044BD3E90023134303D1BDE898
:106D60001040FFF7DDBF10BDB831002037B5430834
:106D7000374AD35CC2074CBF1B0903F00F0304461C
:106D80000D46042B25D8DFE803F003262F3C4000F6
:106D9000F9B10121FFF78AFF00230DF107008DF8FB
:106DA000073000F091FC0120A4F12003C4F1200180
:106DB000284A20FA01F100FA03F30B43A040D2E97C
:106DC000004120430B43C2E900039DF8070000F097
:106DD0009FFC03B030BD002918BF0221204603B03C
:106DE000BDE83040FFF762BF49B10321FFF75EFF06
:106DF0000121204603B0BDE83040FFF781BF0121EB
:106E0000ECE70029E5D10421E8E709B10321E5E732
:106E1000FFF74CFF29462046FFF772FF0DF10700F0
:106E20008DF8075000F050FC0120A4F12003C4F1BC
:106E30002001084A20FA01F100FA03F30B43A040B5
:106E4000D2E9004124EA000021EA0303BBE700BFC6
:106E5000C0310020B83100202DE9F041124E134F0F
:106E600000243378A34208DC114BD3E900231343F9
:106E700018D0BDE8F041FFF753BF3D6805EBC408EB
:106E800015F8340002F0CEFA98F801305A1E534239
:106E90005341181A4142414115F83400FFF766FF8B
:106EA0000134DEE7BDE8F081B0310020D0310020B0
:106EB000B8310020092AF7B505460C4616463ED9DA
:106EC00002F002F9E8B11F4B1F481D601F4B204F15
:106ED0001C70204B002110221E6005F0B6FE1E4BD8
:106EE00000200021C3E90001013CE4B20326FF2C8D
:106EF0000DD11A4A1A48002103B0BDE8F04000F055
:106F00008BB902F0A9F80028DDD003B0F0BD9DF8E0
:106F1000063015F834008DF8046005EBC40223F048
:106F200007038DF8063001A993788DF805303A46AD
:106F300002F0BAF9013CE4B20028D8D0E5E7072016
:106F4000E3E700BFD0310020C0310020B031002085
:106F5000396D0200B4310020B8310020596E0200B2
:106F600088D5020070B5084D084E00242B789C424D
:106F700001D3002070BD3368012113F8340002F002
:106F80000BFA0134F2E700BFB0310020D03100200D
:106F90001FB50021039001AA44F20100CDE90111BF
:106FA00000F004F805B05DF804FB000038B572B6D7
:106FB000FFF744FDFFF7BCFB0028FBD1104B114C41
:106FC000114D1249E41AE408240444F00100FFF7CB
:106FD000FBFCD5F8F030DB0700D500BE0C4944F0CF
:106FE0000200FFF7F1FCBFF34F8FEA68094B02F490
:106FF000E0621343EB60BFF34F8F00BFFDE700BFBC
:10700000CCD3020004D4020000ED00E08CD50200D5
:1070100098D502000400FA0549B152B1531E1A4036
:1070200007D1826001608380C260104670470E20E5
:1070300070470920704710B58468C2688388121BA6
:10704000934208D3C26813400268D154C368013325
:10705000C360002010BD0420FCE78268C3689A4228
:107060000AD08268838813400268D35C0B708368FF
:1070700001338360002070470520704710B5D0E9C8
:107080000243D1E90202A04272EB03032CBF0120AC
:10709000002010BD08B50A4800F06DFC094AD2E98D
:1070A0000031C018084BD3E9002341F100019042A0
:1070B00071EB030303D210F1807041F1000108BDB0
:1070C000002B0020D83100205032002037B5054673
:1070D0000C460A4801A900F082FC60B105704460CA
:1070E00001A9064800F0A5FC18B1054800F048FCCD
:1070F000002003B030BD0420FBE700BF3C3200207D
:10710000002B0020294B73B51E7804461EB90026BB
:10711000304602B070BD0028F9D0FFF7BBFFD4E9BC
:1071200002239042994139D300230DF107008DF8D5
:10713000073000F0C9FA23692BB94FF0FF324FF046
:10714000FF33C4E902239DF8070000F0E1FAD4E917
:107150000530984700250DF107008DF8075000F025
:10716000B3FA2369C3B1D4E90212B2F1FF3F08BFF9
:10717000B1F1FF3F05D05B1842F10002C4E90232D1
:1071800035469DF8070000F0C3FA002DBFD008482F
:10719000214601F03AF8BBE71D46F2E7B3F1FF3FA5
:1071A00008BFB2F1FF3FB2D0F1E700BFE0310020ED
:1071B000B4D5020013B5114B11491868019008238A
:1071C0001048582200F0F8FB044698B90E4A0F48C0
:1071D00001A900F0C1FA044660B90C48012100F091
:1071E000ADFB01230A4A0948194600F00FFB094B81
:1071F00001221A70204602B010BD00BFB0D50200B7
:10720000E43100203C320020F5720200002B002007
:10721000FFFF7F00E031002030B56AB103684FF016
:10722000FF344FF0FF355A614A1E5142C3E902450F
:1072300051411961002030BD0720FCE7F7B5044635
:1072400000250DF1070017460E468DF8075000F097
:107250003BFAD4E90223B3F1FF3F08BFB2F1FF3F8D
:1072600007D1FFF717FF301841F10001C4E902010F
:1072700001259DF8070000F04BFA55B12369A7617D
:1072800003B126612146002003B0BDE8F040FFF7BE
:107290001DBF284603B0F0BD37B5054600240DF1EB
:1072A00007008DF8074000F00FFAD5E90223B3F18B
:1072B000FF3F08BFB2F1FF3F1FBF4FF0FF324FF05B
:1072C000FF33C5E9022301249DF8070000F020FAEE
:1072D00034B12946012003B0BDE83040FFF7F6BEC7
:1072E000204603B030BD0000014800F044BB00BFA1
:1072F000002B00202DE9F743064600F027FB40B1A4
:10730000624AD2E9003113F1807341F10001C2E910
:1073100000310021304600F028FB38B15C4C236876
:1073200023B12068FFF7EEFE0023236001213046E1
:1073300000F01BFB20B1FFF7ADFE564BC3E9000187
:107340005548534C01A900F084FB4FF0FF384FF033
:10735000FF39A0B9DFF844814D4D404600F06BFF86
:10736000002800F08580D0E90223B3F1FF3F08BF79
:10737000B2F1FF3F32D1404600F057FFEDE703780E
:10738000012B20D0022B08D1444D284600F04DFFA0
:10739000002877D0C0E90289F7E75BB94168D1E9F5
:1073A0000223B3F1FF3F08BFB2F1FF3F02D03B48D9
:1073B00000F02BFF01A9384800F076FB01A9364800
:1073C00000F047FBC5E741682368994202D10023DA
:1073D0002360EFE7314800F031FFEBE7296891B116
:1073E0002968D1E9020182428B412FD22B68D3E96F
:1073F0000223B3F1FF3F08BFB2F1FF3F03D029687A
:10740000404600F002FF404600F00FFFD0E902497D
:107410000746FFF73FFE201A69EB0109012879F1C1
:10742000000318DBB0F5350F13D3FFF75DFF1C4ADF
:1074300002441C484FF49603002100F007FA90B96B
:107440002B6813B9304600F0D9F92F6003B0BDE8BE
:10745000F0832246EDE71348002100F07CFA38461D
:10746000FFF750FE01E00D28F9D000232B6074E7F0
:10747000074B1B68002BE9D1304603B0BDE8F04351
:1074800000F0C0B9084B01221A7093E7D8310020F0
:1074900058320020503200203C320020B4D5020087
:1074A000FFFFB400002B0020E03100200648074A0F
:1074B00003780749D35C012213B1043002F0C2BC47
:1074C0000C3002F085BA00BF082B002008330020E2
:1074D000843200200648074A03780749D35C01221A
:1074E00013B1043002F060BC0C3002F021BA00BFCE
:1074F000082B0020083300208532002037B505789E
:10750000012D0DD0022D30D075B91F491F48FFF74E
:10751000A4FD002834D103B0BDE83040FFF7DABF46
:10752000037A1BB9FFF7C2FF03B030BD4368184CA4
:1075300019782046FFF77FFD80B18DF8005001904B
:10754000144B68461B689847A168E368A2885B1AD9
:107550009A42E7D2104B01221A70E5E7A268E3686D
:107560009A42F1D08DF80000EAE7C3688DF8005028
:107570000193FFF79BFF074B68461B689847D3E7CB
:1075800003238DF80030F6E78532002074320020A6
:10759000603200205C32002070320020F0B51F46BF
:1075A000234B89B004461A600D4600293DD08A88D5
:1075B00020480968FFF730FD002834D1AA89A9685E
:1075C0001D48FFF729FD00282DD11C4E0FCE6D461A
:1075D0000FC596E80F0085E80F0063690693237CCA
:1075E000174A18488DF81C70003B18BF01238DF80E
:1075F0001430637C002B14BF0E2300238DF815304C
:10760000E3680293A3680393236801936946636860
:10761000009301F021FC30B90B4B18702368013343
:1076200001D0FFF743FF09B0F0BD0720FBE700BF23
:107630005C3200206032002074320020C0D502008D
:10764000FD740200082B00207032002070B5084D38
:10765000014608482E78FFF700FD044636B10023A6
:107660002B70FFF723FF08B1FFF792FC204670BD97
:10767000703200206032002010B501460E48FFF73E
:10768000DAFC0446A8B90D480D4A0378D35C63B10F
:10769000043002F07DFB60B90A490748FFF7DDFCC2
:1076A00038B9BDE81040FFF715BF0C3002F034F9CF
:1076B000F1E7204610BD00BF74320020082B0020E7
:1076C000083300208532002070B5EFF3108672B6C3
:1076D0000C4A946801239CB993600B4B0B4DD3F873
:1076E000801029401160C3F88050D3F88410516095
:1076F0004FF0FF32C3F88420047006B962B670BD43
:107700000370FAE78832002000E100E0FC06FFBDCC
:10771000084B9A6810B55AB150B9EFF3108172B6A0
:10772000054A1C6814605C685460986001B962B6D0
:1077300010BD00BF8832002000E100E0435882B055
:107740003BB10023435043580193019B012002B0F9
:1077500070471846FBE70000F8B5204B4479204EEF
:1077600043F824201F4A204B06EBC4049B1A2279BD
:10777000DB081B0432B143F002001C49FFF724F977
:107780000820F8BD02680C88C2F8084590F904503A
:107790008A7804795201002DD2B219DB14494F19AD
:1077A00087F8002301226D0904F01F0402FA04F493
:1077B00041F82540427906EBC201012446F8320027
:1077C0000C7143F003000B49FFF7FEF80020D8E7E7
:1077D000094904F00F040A55ECE700BF9C32002071
:1077E00094320020CCD3020014D40200E0D5020071
:1077F00000E100E002D6020014ED00E0036801227F
:107800001A607047036801225A60704773B501F12E
:107810005005AD000068ADB24FF480348C400026B6
:10782000C0F80843C0F84843465101F5A8714559CE
:10783000019522F07F42019D40F82120C0F8444389
:107840000BB1C0F8044302B070BD00002DE9F74F42
:107850000D4622F07F4402684FF4803705F1500650
:107860008F408046B60002EB8500C2F84873B6B27E
:10787000C2F80873D2F8041599464FF0000BD0F8FF
:107880004035C0F8401542F806B05B1A9259009294
:1078900023F07F43012B009A4FEA850A0CD1264B37
:1078A0004FF4806043F001039847D8F8003043F864
:1078B00006B09B590193019BD8F80010D1F80465DC
:1078C000C1F84473A31B23F07F43012B1CD11A4B37
:1078D00005F5A875013443F0010341F825404FF444
:1078E00080609847D8F80030D3F804359E4209D11B
:1078F000D8F800300020C3F84473C3F8047303B011
:10790000BDE8F08F0D20FAE78A44C9F1FF13CAF8E9
:107910004045D1F80405221A013A22F07F4203F5CE
:107920007F439342EED3002AE2D10134CAF84045A6
:10793000D1F804359842DAE720D602000368022223
:10794000C3F8442309B1C3F80423704700684FF417
:107950008271FFF7F3BE4FF4803303FA01F103683D
:10796000C3F84813C3F80813704750318900006802
:1079700089B2FFF7E3BE0368D3F80405704700003F
:1079800090F90430002B09DB5A09012103F01F0391
:1079900001FA03F34032024941F82230704700BF38
:1079A00000E100E0024B034A1B681068184700BF63
:1079B0009C3200209432002010B561B1B2FBF3F488
:1079C00003FB1424A4B244B9C0E90014846082818A
:1079D000C381204610BD0E20FCE70920FAE737B529
:1079E00050E8013F9DB2C48925448489A54228BF3F
:1079F0002D1B0489A54202BFBFF32F8F002207E091
:107A0000C5EA030540E80154002CE9D14FF001021A
:107A10008DF803200193019A0A609DF8031001F08C
:107A2000FF0321B1006810FA82F003B030BD1846A0
:107A3000FBE70A884B889A4209D150E8012FC2EA35
:107A4000024240E80123002BF7D1012070470020BB
:107A5000704737B550E8023F1FFAA3F5C488A54226
:107A600002BFBFF32F8F00220DE0C4892544848913
:107A7000A54228BF2D1BC3EA054540E80254002C4F
:107A8000E8D14FF001028DF803200193019A0A60BA
:107A90009DF8031001F0FF0321B1006800EB1240D4
:107AA00003B030BD1846FBE70A884B889A4209D1DB
:107AB00050E8022FC2EA224240E80223002BF7D10D
:107AC000012070470020704701F01F024B0901217F
:107AD000914000EB830000F01EB801F01F0301226B
:107AE0009A404B0900EB8300D14300F02CB84B09BE
:107AF00001F01F0150F82300C84000F0010070475A
:107B000010B5034653E8000F0A4643E8002494F0FA
:107B1000000FF7D110BD10B5034653E8002F42EA1D
:107B2000010043E8000494F0000FF6D110BD10B539
:107B3000034653E8000F00EA010243E8002494F0F2
:107B4000000FF6D110BD10B5034653E8002F02EA2E
:107B5000010043E8000494F0000FF6D110BD10B509
:107B6000034653E8002F02EB010043E8000494F0C1
:107B7000000FF6D110BD10B5034653E8002FA2EB5D
:107B8000010043E8000494F0000FF6D110BD01217C
:107B9000FFF7C1BF0021FFF7CABF10B590B1D0E910
:107BA000012301689B1ADBB20A60013BDBB2FF2BA9
:107BB000026802D10020107110BD11684C1C1460C5
:107BC0000B70F2E70E20F7E737B5054600240DF1FC
:107BD00007008DF80740FFF777FD2A686B6811688A
:107BE00099420ED9481E106011F8013CEC68298AB0
:107BF00001FB0344AB6811791B1ADBB2994238BF11
:107C000013719DF80700FFF783FD204603B030BDD8
:107C100037B5054600230DF107000C468DF80730F7
:107C2000FFF752FD2A681368591C1160E968641A4D
:107C3000298AB4FBF1F41C709DF80700FFF768FD7A
:107C400003B030BD826810B504462AB143690168AB
:107C5000006998470023A36010BD0EB403B50399D3
:107C600021B104AB01AA019300F076F802B05DF8EF
:107C700004EB03B070470A2938B504460D4602D11B
:107C80000D21FFF7F8FFA3682268591CA160D554A5
:107C9000D4E901329A4204D32046BDE83840FFF7C8
:107CA000D1BF38BD2DE9F84F9846DDE90A431546A6
:107CB00082460F460A464FF00109AA420FD2C1453B
:107CC00038BFC14613F0010B01D16CB90024012665
:107CD000B8F1010F1BD908F1FF386E43F8E709F13D
:107CE0000109B2FBF5F2E8E79B070ED5B8F1000FEA
:107CF0000CBF30262026A145E9D2013C3146504632
:107D0000FFF7B9FF002CF6D1E0E72026F3E7B7FB39
:107D1000F6F39D42E1D9DFF83C80B7FBF6F350461D
:107D200018F8031006FB1377FFF7A5FF3346AB42A5
:107D3000B6FBF5F6F1D2BBF1000F02D00CB1A145B4
:107D400001D3BDE8F88F20215046013CFFF793FF97
:107D5000F4E700BF26D602002DE9F74F0546174687
:107D60008846002900F03E8118F8011B49B92B7B99
:107D7000002B00F03781284603B0BDE8F04FFFF735
:107D800061BF252940F0B780002698F800302D2BE0
:107D9000424608F1010823D0302B24D02B2B25D0CC
:107DA00000242A2B02F1010123D13B681A1D1B6814
:107DB0003A601C440A4613782E2B26D101324FF02C
:107DC000000A104610F8011BA1F1300CBCF1090F9C
:107DD0001DD80A2303FB0A13A3F1300A0246F0E779
:107DE00046F00106D1E746F00206CEE746F004066B
:107DF000CBE711F8013CA3F130000928DBD80A22B7
:107E000002FB0434303C0A46CBE74FF0000A12F87C
:107E1000011B01F0FB0068289046F8D0782909D8AA
:107E20006F290CD8632962D022D8252963D058291C
:107E300000F0888098F80030002B95D197E77039D2
:107E40000829F7D801A353F821F000BFBF7F020033
:107E5000357E0200357E0200557F0200357E02002D
:107E6000337F0200357E0200357E0200457F02002E
:107E7000642901D06929DDD13A68D2F80090111D3A
:107E800089EAE9723960A2EBE9724FF0010B092A25
:107E900035DCD34538BFD3462CB1B9F1000F01DB37
:107EA000720700D5013CB30702D5BAF1000F03D029
:107EB000F00701D44CBB0024B9F1000F2DDAC9F151
:107EC00000092D212846FFF7D6FE06F00302022AFC
:107ED00004D1BAF1000F01D11CBB0024CDE900464A
:107EE00053460A2249462846FFF7DCFEA2E73B68D4
:107EF0001A1D19783A602846FFF7BDFE9AE70A2353
:107F00000BF1010BB2FBF3F2C1E7A345D4D2202160
:107F10002846013CFFF7AFFECCE77107D5D52B21F2
:107F2000D0E7A345DAD230212846013CFFF7A3FE73
:107F3000D2E73968CDE900460A1D3A6053460A2265
:107F40000968D0E739680A1D3A60CDE90046534612
:107F50001022F5E73B681A1D3A6016F00106D3F8C7
:107F6000009024D1B9F1000F03D0484604F0C2FEBE
:107F70000646B4421DD809F1FF3919F8011F00293E
:107F80003FF458AF2846FFF776FEF6E7284601365D
:107F9000FFF771FE19F806100029F7D1A642BFF4C9
:107FA00049AF20212846013CFFF765FEF6E7002691
:107FB000F0E720212846013CFFF75DFED9E73B684A
:107FC0001A1D3A60302128461C68FFF754FE7821BC
:107FD0002846FFF750FE00220823CDE90032214653
:107FE000102280E703B0BDE8F08F00BF2DE9F84F05
:107FF000B0F806A04579D2F800B09DF828900AFBA9
:1080000005F5043D88460BEB0301A94203F1040486
:1080100088BFA5EB030BB4FBFAF607460AFB164430
:10802000C2F800B04EB9AAEB04055D4528BF5D4615
:10803000BBF1000F04D1BDE8F88F3F68013EF1E7C6
:10804000043408EB06003C442A46B9F1000F0DD079
:108050002146ABEB050B04F0CFFDDA452E443F681B
:1080600055464FF0000428BF5D46E1E70146204633
:10807000EFE7FFF792BDF8B546790146721E054657
:10808000002393422D6803D30024A64202D8F8BDF2
:108090000133F6E70F682846FFF7BAFD0134394689
:1080A000F3E72DE9F843068ACD1C0746FFF78CFD60
:1080B000043E35440446B5FBF6F5F0B14FF4807349
:1080C000EDB28380C680013D076081464FF0000815
:1080D000A84512D23846FFF777FD064648B16379C6
:1080E0000133637108F10108C9F800000760814697
:1080F000EEE72046FFF7BFFF34462046BDE8F88391
:1081000001210430FFF72BBD10B5012104460430D6
:10811000FFF731FDC0B220B92046BDE81040FFF79F
:10812000AABF10BD1FB503920022009203AAFFF759
:108130005DFF05B05DF804FB1FB5039201220092BC
:1081400003AAFFF753FF05B05DF804FB41DF70475A
:10815000064B10B500241C70054B1C60BFF35F8FED
:108160000449054800F03BF8204610BDA832002025
:10817000AC32002040D60200A032002007B5002318
:108180000DF107008DF80730FFF79EFAF1EE103A77
:1081900023F09F03E1EE103ABFF35F8F0A4B4022BA
:1081A000C3F884219DF80700FFF7B2FA04F00EFA35
:1081B00020B103B05DF804EBFFF7C8BF20BF40BF9C
:1081C00020BF03B05DF804FB00E100E083680022FB
:1081D0005A60C3E904229A60DA601A6070470B683B
:1081E0004A684360934208BF0023016008BF4360B0
:1081F0007047436843B10268916852680B449342E8
:10820000436004BF00234360704770B5446806466E
:108210000D46206818B1B3682946984718B92368F5
:108220002B60256070BD2468F3E74368186808B1C7
:1082300002681A6070474368186870474368186896
:1082400000B97047884203D102681A600120704764
:1082500003460068F4E7000010B50D49A1F59472DB
:10826000914201D800200FE08C1AE30F03EBE403E6
:108270005B1002EBC30452F83330834205D802D2BC
:1082800004F10802ECE7606810BD2146E8E700BF92
:108290004CDB020008B5FFF7DFFF024B002808BFE8
:1082A000184608BD0FDA020010B50446C0B2FFF749
:1082B000E3F9204610BD2DE9F8430468054694F81B
:1082C000200001F09BFF04F11807FF264FF0FF3953
:1082D0004FF00008207AFF2802D001F08FFF2672AD
:1082E000607AFF2802D001F089FF66722068431C83
:1082F00003D000F055FFC4F8009084F80B800C34D4
:10830000BC42E7D16868BDE8F84301F0AFBE0000A9
:108310002DE9F041134EDFF850800C46002501276F
:1083200006EB4106735D5BB1735D013BDBB27355D8
:10833000735D93B958F824301B682046DB69984771
:108340004DB167B1084B53F824300221BDE8F0412C
:10835000586801F0FEBE0125E4E70027F0E7BDE81C
:10836000F08100BFC9320020B032002010B5406853
:108370000B4902798C5CFF2CE3B20DD0FE2B0DD0A3
:10838000006803F5A87350F82330064850F822001F
:10839000984203D1FF238B54002010BD0120FCE73D
:1083A000C4320020D43200202DE9F74F03689046F4
:1083B00093F82120022A04460F4640F098800C26AC
:1083C0004E439A195268904509D1DB691BB90020C8
:1083D00003B0BDE8F08F426810799847F7E7FFF7E0
:1083E000C5FF8346002840F084806368DFF8109161
:1083F0001B79FE2209F80320256895F8200001F07A
:1084000059FFB8F1000F1FD12E44707A01F052FFCE
:10841000307A01F037FF63681B79FF2209F80320E7
:108420000C2303FB07552368C5F80480DB69002B88
:10843000CDD063681A79304B03EB42030221D95542
:10844000606801F073FEC2E7A969884507D32E442E
:108450001FFA81F8307A01F02DFF707AD9E707EB27
:1084600047034FEA830A05EB830360685A68914229
:1084700038D0904536D25B46032101F029FE63686F
:1084800095F820B0196855F80A002E4401F5A67138
:10849000B37A01911BB300F0E7FE024601995846FA
:1084A00001F0D0FE95F8200001F0ECFE63681B7926
:1084B00009F8037063681A79104B43F822800C2680
:1084C00006FB0756606800234246394601F000FE6D
:1084D000307A01F0D7FE707A01F0D4FEA0E700F008
:1084E000AFFEDAE70379FF2209F80320E7E7082067
:1084F0006EE711206CE700BFC9320020D4320020A3
:10850000C432002003681B8B5A436423B2FBF3F28E
:1085100092B2FFF749BF00002DE9F04F2DED028B1D
:1085200089B0044603928A46002900F03381066828
:1085300096F82130002B40F02F8101F0D3FE08B1D6
:10854000852846D100F0C0FD002839D04FF0704397
:10855000924AD3F8E83F03F0F003303B18BF012301
:108560001370FF2386F820304FF6FF73002233810B
:108570004FF0FF33F2723360F275B382F36006F1AD
:10858000200001F007FE074600BB0AF10803804601
:1085900004935AF828205FFA88F308EE103A531C27
:1085A00000F09280256895F82110B9B10825204681
:1085B000FFF781FE284609B0BDEC028BBDE8F08FC5
:1085C00000F04AFD0028C1D00325F3E72046FFF75D
:1085D00072FE0425EEE74FF00108DAE7049B0592EE
:1085E00013F808B00C2303FB08F905EB0903104648
:1085F000596083F80AB003238DF81830BBFA8BF367
:108600005B098DF8193006A901238DF81A3000F0A6
:1086100065FD90B9059A45F80920012393404FF074
:10862000A042BBF1000F00F0A780C2F80C3509F1A1
:108630000800284401F0AEFD08B10425B7E709F1B0
:108640000900284401F0A6FD0028F6D10C2303FB05
:1086500008530593187A01F02DFE059B587A01F016
:1086600029FE55F80900BBF1000F00F0888000F0EA
:10867000FBFD834655F8090000F0E2FD62681168D1
:108680000C2202FB08554FEA880303F5A073194436
:1086900081465A46287A01F0D5FD6368687A1968E0
:1086A0004A4601F5A47101F0CDFD0123EB72636828
:1086B0003B4A1B7902EB4303002203F8082018EE23
:1086C000101A2046FFF770FEB8F1000F83D0DAF8D9
:1086D0001030B3F5805F01D3092F58D12F4B1B7891
:1086E00013B1012F38BF012700238DF819306068BE
:1086F0008DF818704FF4E063ADF81A300379294A09
:10870000079306A901F030FC054600287FF44FAF1F
:108710006068DAF810200368D3F81075FFB24FEAEA
:10872000127CC7F1200112010CFA01F1A7F120031C
:1087300022FA07F72CFA03F30F431F434FF0010807
:10874000B76101F0C1FC04233A466068CDF80080AF
:10875000022101F0D6FC0221606801F0FAFC039BC3
:10876000F3616368104A1B7986F8218042F8234040
:108770000E4AFF21D1541DE7C2F8083557E700F033
:108780005FFD834655F8090000F06EFD76E75B0853
:1087900001379EE70B250DE708250BE7E83200209F
:1087A000C932002011830200B0320020C432002000
:1087B0002DE9F0470768DFF86890002604463D463B
:1087C000B0464FF00C0A63681B7909EB430303F8CA
:1087D0000680EB7A73B1236828680AFB0633997A1E
:1087E000B1FA81F1490900F047FD286800F00AFD5F
:1087F000C5F804800C357EB16368084A1B79FF21F7
:10880000D154606801F060FC606801F015FC02233F
:1088100087F82130BDE8F0870126D4E7C432002074
:10882000C93200204FF08053D3F83001421C04BFFE
:108830004FF0704393F8E00F831F58425841704740
:108840004FF0704393F8E02F062A09D1D3F8E83FA0
:10885000C3F30313033B042B02D8024AD05C7047D6
:10886000002070475BDB0200024AD2F80034002B84
:10887000FBD0704700E0014010B5FFF7D3FF40B1D7
:108880004FF08053944AD3F82433C3F30423C2F83F
:108890004035FFF7D5FF10B1904B914A5A67FFF76B
:1088A000C1FF48B14FF080534FF08042D3F84432BB
:1088B000C3F34233C2F83C35FFF7C2FF30B1894AF7
:1088C000D2F8FC3023F08073C2F8FC30FFF7AAFF27
:1088D00040B14FF080430022C3F80C21C3F81021AF
:1088E000C3F83825FFF7ACFF20B14FF080430322D7
:1088F000C3F8A025FFF7A4FF60B17B4B0522C3F8A6
:1089000010260122C3F888260022C3F818263F2229
:10891000C3F814264FF08053D3F83021511C09BFFF
:108920004FF07043D3F8343193F8E02FD3F8E83F99
:1089300008BFC3F30313062A4DD1033B042B03D80E
:108940006A4AD35C002B46D04FF08052684BD2F875
:108950000414C3F82015D2F80814C3F82415D2F86B
:108960000C14C3F82815D2F81014C3F82C15D2F83B
:108970001414C3F83015D2F81814C3F83415D2F80B
:108980001C14C3F84015D2F82014C3F84415D2F8CB
:108990002414C3F84815D2F82814C3F84C15D2F89B
:1089A0002C14C3F85015D2F83014C3F85415D2F86B
:1089B0003414C3F86015D2F83814C3F86415D2F82B
:1089C0003C14C3F86815D2F84014C3F86C15D2F8FB
:1089D0004424C3F87025FFF725FF48B14FF08053BA
:1089E0004FF08042D3F8583203F04F03C2F8E43E10
:1089F000FFF718FF48B14FF08043D3F80024D207A7
:108A000044BF6FF00102C3F800244FF08053D3F845
:108A10003021062A0ED1D3F83431033B042B02D87F
:108A2000344AD35C33B1344AD2F83C3743F48063E0
:108A3000C2F83C372B4AD2F8883043F47003C2F8AE
:108A40008830BFF34F8FBFF36F8F4FF08053D3F851
:108A50003021062A0FD1D3F83431033B042B02D83E
:108A6000264AD35C3BB14FF01023D3F808224FF0D5
:108A70008043C3F858254FF01023D3F80022002A72
:108A800003DBD3F80432002B22DA1D4901234FF017
:108A90001020C1F804351524FFF7E6FEC0F80042A7
:108AA000FFF7E2FEC0F80442FFF7DEFE0023C1F844
:108AB0000435FFF7D9FEBFF34F8F0A49114BCA683F
:108AC00002F4E0621343CB60BFF34F8F00BFFDE7BA
:108AD0000D4B0E4A1A6010BD0030014000C0074027
:108AE0000DF0ADBA00ED00E0005000404CDB02009C
:108AF00000C0004051DB02000010004056DB0200C5
:108B000000E001400400FA051C2B00200090D00377
:108B1000054A4FF0A043105CD3F8043523FA00F067
:108B2000C04300F00100704764DB0200044B1A5C94
:108B3000012393404FF0A042C2F80C35704700BFAC
:108B400064DB0200044B1A5C012393404FF0A04207
:108B5000C2F80835704700BF64DB020008B500208A
:108B6000FFF7F0FF0120FFF7EDFF0220FFF7EAFF1C
:108B7000BDE808400320FFF7E5BF08B50020FFF778
:108B8000D5FF0120FFF7D2FF0220FFF7CFFFBDE89E
:108B900008400320FFF7CABF074A4FF0A041105C0E
:108BA000D1F804350122824022EA03001340C1F8C3
:108BB0000805C1F80C35704764DB0200054A4FF028
:108BC000A043105CD3F8103523FA00F0C04300F046
:108BD0000100704760DB02000D2809D00E2809D083
:108BE0000F2809D010280CBF03204FF0FF3070472A
:108BF000002070470120704702207047014B185C2D
:108C0000704700BF60DB0200C20708B501460CD503
:108C10004FF0A0430322C3F84427C3F84827C3F802
:108C20001C27C3F85027FFF799FF8B070AD54FF091
:108C3000A0430C22C3F83427C3F83827C3F83C27D5
:108C4000C3F8402708BD000038B5074C051E04F1E5
:108C5000080318BF1C4623682BB11A6822605B68A2
:108C600028469847F7E738BDF432002020B9054B75
:108C700001225A70FFF7E8BF012802D1014A907023
:108C8000F8E77047EC32002020B9034B01225A70FC
:108C9000FFF7DABF704700BFEC32002038B50E4C4A
:108CA0002378B3B90D486360A3602361E36000F0EB
:108CB0001BF9054603F08AFC08B900F021F90123ED
:108CC0002370074BD3F800340BB10123A37028465F
:108CD00038BD8525F5E700BFEC3200206D8C020021
:108CE0000000014037B5184CA378054603F0FF0299
:108CF0009BB110B143680120984700230DF1070094
:108D00008DF80730FEF7E0FCE3689DF807000133BB
:108D1000E360FEF7FDFC03B030BD0DF107008DF8F8
:108D20000720FEF7D1FC25B1226913463BB92A6022
:108D30002561E368002BE7D100F0F4F8E4E79D42F9
:108D4000F7D01B68F2E700BFEC32002037B50D4CBE
:108D500000230DF107008DF80730FEF7B5FCE3683E
:108D6000013BE360E36833B9074BD3F8005415B90E
:108D700000F000F9A5709DF80700FEF7C9FC03B0EC
:108D800030BD00BFEC32002000000140012813B5C7
:108D90000CD0032820D038B9134B0122C3F880200F
:108DA000BFF34F8FBFF36F8F02B010BD0F4C002386
:108DB0000DF107008DF80730FEF786FC23780BB91C
:108DC000FFF76CFFE3689DF807000133E3600123C0
:108DD000A370FEF79DFCE7E700F092F802B0BDE853
:108DE0001040FFF7B3BF00BF00E100E0EC3200200D
:108DF0001FB503788DF800304368019383688DF8C0
:108E00000830C368054A0393054B684653F8213080
:108E100052F82110984705B05DF804FB003300209C
:108E2000043300201FB503788DF8003043680193A8
:108E300083688DF80830C368054A0393054B68467C
:108E400053F8213052F82110984705B05DF804FB23
:108E50000033002004330020F0B5194B90F800C017
:108E600091F81DE043F82C20164B16460A6943F88A
:108E70002C20154B03F80CE00C4607460FCC89B0AC
:108E80006D460FC594E80F0085E80F00CDF810C0BF
:108E9000BEF1000F09D0002E0C4A694608BF3246C9
:108EA000381D00F0B3FE09B0F0BD002E084A694637
:108EB00008BF324607F10C0000F07AFCF3E700BF70
:108EC000043300200033002008330020F18D02001D
:108ED000258E020000F18040002382B00360036809
:108EE0000193019B02B07047044A137923B9012111
:108EF0001060918018467047852070470C33002021
:108F0000074B1A68D20704D4C02283F80023012239
:108F10001A604FF080430122C3F81825704700BF44
:108F200000E100E038B54FF48270FFF7D3FF4FF057
:108F300080430222C3F804230C4AD2F8FC0040F01C
:108F40008073C2F8FC300A4B1C6844F001011960C0
:108F50005D685968491BB1F50A5FFAD31C604FF090
:108F60008043C2F8FC0001229A6038BD00ED00E0A9
:108F7000001000E04FF0804208B50223C2F8083329
:108F80004FF48270FFF7A6FF0123D360D2F81834A4
:108F9000DB03FBD408BD00004FF0804110B5D1F8D1
:108FA000003163B14FF48070FFF794FF0D4B587997
:108FB0000122C1F8082310B95A711B6898474FF075
:108FC0008042D2F8043163B14FF48270FFF782FF20
:108FD0000223C2F80833034BBDE810401B68012090
:108FE000184710BD0C33002000F1804000F5C04050
:108FF000002382B0036003680193019B02B07047B5
:10900000800000F1A040D0F8002722F44032C0F8E0
:109010000027D0F8003743EA0141C0F80017704735
:10902000054B4FF0FF32072843F8202084BFC018BB
:1090300080F84820704700BF14330020C20805495B
:1090400000F0070001238340885C20EA0300885475
:10905000704700BF6833002010B5184991F85830A8
:1090600053BB4FF0FF3222FA03F0C00748BFC818C5
:1090700003F1010348BF80F83020202BF3D10024F6
:10908000E0B20134FFF7CCFF0C2CF9D10C4B0022DD
:10909000C0204A6583F80603402018604FF4BE7074
:1090A000FFF7A2FF074B4FF00040C3F80403012372
:1090B00081F85830104610BD0820FCE7143300201A
:1090C00000E100E000600040034B93F858000038D6
:1090D00018BF0120704700BF1433002030B52E4B5D
:1090E0001A1892F93040013453D18C78002C4CD0AE
:1090F0001C46002254F8045B013541D11C1884F849
:109100003020002443F82240920002F1804202F510
:10911000C0420B78D2F810554C7825F498151B04F2
:10912000240525F4F85504F4801403F44033C2F800
:10913000105523430402D2F8105504F4F854234385
:109140002B43C2F810354A780123012A4FF0A04280
:1091500003FA00F30CBFC2F80835C2F80C3500F56D
:10916000E073032142F82310C2080C49012300F0E8
:10917000070003FA00F08B5C18438854002003E0DA
:109180000132082AB6D1042030BDFE2382F83030E7
:10919000D9E70820F8E700BF143300206833002027
:1091A00038B5164C2518014695F83000072809D81F
:1091B000FFF736FF95F93030114A03F5A27300200E
:1091C00042F823006318FF2204EBD10483F8302017
:1091D00094F8542001F00700012383401A420BD079
:1091E0004FF0A04301F5E072022043F82200BDE8F1
:1091F00038400846FFF722BF38BD00BF14330020B7
:1092000000600040074B184490F930309B0003F198
:10921000804303F5C043D3F8102542F00302C3F89E
:109220001025704714330020044B184490F9300087
:109230000C30800000F0FC00704700BF14330020A9
:1092400008B5FFF7F1FF00F1804000F5C04008BD10
:10925000044B184490F930001830800000F0FC00F6
:10926000704700BF1433002008B5FFF7F1FF00F18D
:10927000804000F5C04008BD0A4B1844003990F901
:1092800030304FEA830303F1804303F5C04318BF36
:109290000121D3F8102522F4801242EA0152C3F8CA
:1092A0001025704714330020F0B5394E331893F968
:1092B0003030002B69DA8D78C5F34005002D0BBFE7
:1092C000082300230C240824A34201D10420F0BD6C
:1092D00056F82370013743D137185CB246F8232083
:1092E00087F8304015B9F21882F848008A78550797
:1092F00016D4D70736D5820002F1A042D2F8005723
:1093000025F00205C2F80057224FC50800F0070CEF
:10931000012202FA0CF217F805C042EA0C027A5553
:109320008A780D7812F0020225D09B0003F1804369
:1093300003F5C0430002D3F8102522F4473222F48B
:109340004072C3F810252D04D3F8102500F4F8500E
:1093500005F4403528431043C3F810050020B6E754
:109360000133B1E74D7800F5E0724FF0A047AD0052
:1093700047F82250C8E7083C46FA84F494F85000B5
:1093800040EA851584F85050E8E708209FE700BFC1
:10939000143300206833002038B5204C251895F987
:1093A0003020072A18DD083A44FA82F494F8503045
:1093B0009B09032B0BD14FF0A043D3F81015C140EC
:1093C00001F001010231BDE83840FFF719BE012B61
:1093D0000CBF02210321F6E7D3B2072B1DD893005F
:1093E00003F1804303F5C043D3F8100540F00100BA
:1093F000C3F8100502F1400040B2800080B2FFF7D0
:10940000F3FD51B195F9303054F823302BB10123DD
:1094100003FA02F2024BC3F8042338BD14330020D0
:10942000006000404FF0A043D3F8103523FA00F05D
:1094300000F00100704700002DE9F74F00244E4D69
:1094400001944FF48072012102F1804303F5C0437F
:1094500090B21B68012B06D1D5F804330B4202D021
:10946000FFF7C2FD0C430432B2F5907F4FEA410191
:10947000EAD1414BD3F87C31012B0CD14FF4BE70B3
:10948000FFF7B2FD4FF0A04344F00044D3F820258D
:109490000192C3F82025E3B2D3B1384F002501264D
:1094A000344210D0AB0003F1804303F5C043D3F83E
:1094B0001005D3F8101557F8253023B1C1F3014139
:1094C000C0F3042098470135082D4FEA4606E7D13E
:1094D000002C48DA294D4FF0A048294E4FF00009E2
:1094E000012716F9013B5A1C31D0C3F3C2020832DE
:1094F0006A44DCB212F8042C03F03F0A03F00703BD
:1095000007FA03F31A4222D00AF5E073504658F8DE
:109510002330C3F3014BBBF1020F0CBF0321022127
:10952000FFF76EFD07FA0AF3C8F8203505EB0A03CA
:1095300093F9303055F823304BB1A109032904D0F9
:10954000BBF1020F12D1012901D15046984709F110
:109550000109B9F1040FC4D1D8F820350193C8F836
:109560002035002BB9D103B0BDE8F08FBBF1030F5C
:10957000EDD10229E8E700BF00600040143300206D
:1095800064330020014B1B68184700BF7033002074
:109590000E4B984237B50C4602D0002003B030BDC8
:1095A00000230DF107008DF80730FEF78DF8084B0A
:1095B0001D7915B901221C601A719DF80700FEF78C
:1095C000A7F8002DE9D01120E8E700BF00200040F7
:1095D000703300200023435082B043580193019B15
:1095E00002B070470A4610B54FF48E71FFF7F2FFD4
:1095F000136A9168C95C136A01331362C0F81C15C1
:1096000010BD024608B500684FF49271FFF7E2FF03
:1096100010684FF48471FFF7DDFF136801221A60B0
:1096200008BD8B690A4610B54FF4847123B9FFF762
:10963000D1FFD0F8183510BDFFF7CCFF536AD168C1
:10964000D0F81805C854536A01335362F3E7000099
:109650001FB501238DF80030044BCDE90110D3E98B
:1096600000126846904705B05DF804FB783300208F
:1096700030B54D4DD5F804339A0585B051D5D5F8A0
:109680002431002B4DD04FF492712846FFF7A2FFF2
:109690004FF40173C5F80833444B93F829200AB9F5
:1096A00001226A60404902228DF80020D1F880240E
:1096B000C1F8802403929A690292DA68019200222A
:1096C000C3E906226846D3E9001290473648D0F82D
:1096D0001C315BB1354A5169136A99424DD992F8F0
:1096E0002830002B49D11146FFF77CFF2E48D0F8D7
:1096F0004431002B56D04FF4A271FFF76BFF2B4B78
:1097000093F829200AB1012202609A69002A49D0FF
:10971000586AD96800229A6105B0BDE83040FFF769
:1097200097BFD5F804335B07D0D5D5F80831002BA7
:10973000CCD01E4C1C482146FFF773FF636AA26918
:109740009A42C3D1E369E1684BB1A3612369E36045
:109750000023606AE3616362FFF77AFFB6E794F87B
:1097600029300BB901236B600F4B4FF40172C3F822
:1097700008230023606AA361EEE70B484FF48E7163
:10978000FFF728FF5369002BB0D0516902910023E5
:1097900091688DF80030019153616846D2E9001359
:1097A0009847A3E705B030BD002000407833002083
:1097B0002DE9F843534D90F804802C2303FB085304
:1097C000064693F82A300C469146002B40F09680CE
:1097D0004D490068FFF7DCFE0746002840F0908006
:1097E00022683068511C0BD04FF0A04101239340F8
:1097F000C1F8083502F5E0734FF0030C41F823C0BF
:1098000061684B1C1FBF01F5E0734FF0A04C4FF097
:10981000000E4CF823E0A369C0F8243594F814C076
:10982000637DBCF1010F4CEA0303C0F86C35C0F84E
:109830001415C0F80C251DD1A268531C1FBF02F5DA
:10984000E0734FF0A0414FF0000C41F823C0E368F3
:10985000591C0BD04FF0A04C01219940CCF80815B1
:1098600003F5E0714FF0030E4CF821E0C0F8083525
:10987000C0F810252C2202FB08F2AB18C3F80490A4
:109880002369AB50B9F1000F20D04FF48E71247FC3
:10989000FFF7A0FE4FF4A2713068FFF79BFE32681D
:1098A0001A4BC2F80433130B42F307326101002A4A
:1098B000C9B21EDB1648841884F80013012152092E
:1098C00003F01F0301FA03F340F822303368042247
:1098D000C3F800252C2303FB08530022C3E906220A
:1098E00083F829205A61012283F82A203846BDE8EE
:1098F000F883084A03F00F03D154E7E70827F5E798
:109900001127F3E7783300207196020080000200EF
:1099100000E100E014ED00E00279044B2C2101FB92
:1099200002335869003818BF01207047783300208F
:109930002DE9F84F064690F8048089469246FFF7D5
:10994000EBFF044600283CD1204F2C2508FB057B6B
:109950004FF48E71CBF814A0CBF80890CBF8200010
:109960008BF828003068FFF735FE306801238360EC
:109970005946FFF737FEDBF804305D461BBB306805
:10998000DBF814402B6A9C4211D83368D3F81C21B1
:10999000002AFBD00122DA6000202C2303FB087789
:1099A00000237B61BDE8F88F95F828303BB9D0F8EB
:1099B0001C31002BF8D05946FFF714FEE2E70F20C8
:1099C000EBE71120EEE72046ECE700BF78330020FC
:1099D0002DE9F0473A4D07792C2303FB0753064640
:1099E0005C6824B103684FF40170C3F808032C23AA
:1099F00003FB0753986950B1D869002841D024B1BE
:109A000033684FF40172C3F80423112436E09A61DD
:109A1000D9605862D8612C2303FB075393F829308F
:109A20001BB910B93046FFF7ECFD4FF02C0808FBCE
:109A3000075A3068DAF80430002B37D14FF4A2719E
:109A4000D046FFF7C7FD3068D0F82491D0F8083130
:109A5000D0F84441CBB914B9B9F1000FF3D02C239D
:109A600003FB07550023AB61B9F1000F24D12CBBD8
:109A700095F8291033680122B1B11A602046BDE87B
:109A8000F0871961DA610120C5E7B9F1000FE6D16D
:109A9000002CE4D14146FFF7C4FDDAF82430DAF8AF
:109AA00018209A42CFD8DAE75A60E7E74FF40173FB
:109AB000C0F804330024E1E70324DFE70F24DDE7E7
:109AC000783300200023435082B043580193019B18
:109AD00002B070471FB501238DF80030044BCDE96B
:109AE0000110D3E900126846904705B05DF804FB09
:109AF000A43300207FB5434AD2F82461002E60D001
:109B000010464FF49271FFF7DDFF02238DF800300D
:109B1000D2F88034C2F880340393D2F83C350293F3
:109B2000394BDA6801920022C3E906226846D3E97C
:109B3000001290473348D0F8443173B14FF4A2710A
:109B4000FFF7C0FF304B9A693AB10022C3E9062201
:109B5000D968D0F83C05FFF7BDFF2A48D0F820317E
:109B6000ABB14FF49071FFF7ADFF0123C360264BFB
:109B70005A6962B1D0F84C150291002299688DF8AB
:109B8000002001915A616846D3E9001290471D48B0
:109B9000D0F858319BB14FF4AC71FFF793FF1A4BDB
:109BA0005A6962B1D0F84C150291002299688DF87B
:109BB000002001915A616846D3E90012904704B031
:109BC00070BDD2F81031002BB4D04FF4887110461C
:109BD000FFF778FF0C4BD2F83C0599698842A9D170
:109BE000DC69D96864B1D2F8005225F02005C2F8CA
:109BF00000521A699C61DA60DE61FFF76BFF99E73A
:109C00009C61FAE700200040A43300202DE9F843CE
:109C10005A4E90F80480242303FB0863044693F80B
:109C200020300D469146002B40F0A3805449006837
:109C3000FFF7AEFC0746002840F09D802A682068A8
:109C4000511C0BD04FF0A04101239340C1F80835BF
:109C500002F5E0734FF0030C41F823C069684B1C18
:109C60001FBF01F5E0734FF0A04C4FF0000E4CF811
:109C700023E0AB69C0F8243595F814C06B7DBCF1C6
:109C8000010F4CEA0303C0F86C35C0F80C25C0F88E
:109C900014151DD1AA68531C1FBF02F5E0734FF0C5
:109CA000A0414FF0000C41F823C0EB68591C0BD0C9
:109CB0004FF0A04C01219940CCF8081503F5E07154
:109CC0004FF0030E4CF821E0C0F80835C0F810251D
:109CD000242202FB08F2B318C3F804902B69B35096
:109CE000B9F1000F2FD04FF488712A7FFFF7EAFEF9
:109CF00020684FF49071FFF7E5FE20684FF49271F1
:109D0000FFF7E0FE20684FF4A271FFF7DBFE4FF48F
:109D1000AC712068FFF7D6FE23681A49C3F8041314
:109D2000190B43F307335201002BD2B21CDB164848
:109D3000C51885F8002301225B0901F01F0102FA12
:109D400001F140F8231023680822C3F800252423DA
:109D500003FB08660023C6E906337361012386F816
:109D600020303846BDE8F883084B01F00F015A5403
:109D7000E9E70827F5E71127F3E700BFA433002040
:109D8000F59A02001003420000E100E014ED00E04B
:109D90000279044B242101FB02335869003818BFB3
:109DA00001207047A433002001F06043B3F1005F4D
:109DB0002DE9F0470646884692463BD190F804903C
:109DC000FFF7E6FF0446002836D11D4F30682425F2
:109DD00005FB09754FF49071C5F814A0C5F808800B
:109DE000FFF770FE4FF4AC713068FFF76BFE33681D
:109DF0006A69A968C3F84415C3F8482501229A6026
:109E00006A68DAB9D3F82021D3F858011AB90028C2
:109E1000F8D00F2007E00028FBD10122DA60D3F848
:109E20005821002AFBD0242303FB097700237B6100
:109E3000BDE8F0871020FBE71120F9E72046F7E79F
:109E4000A4330020F8B501F06043B3F1005F04468D
:109E50000F465ED10379304D242101FB035149683F
:109E600021B100684FF40476C0F80863242000FB99
:109E700003539E6956B1D869002839D021B12368AF
:109E80004FF40472C3F80423112030E09A61DF60BC
:109E9000DE6120684FF48871FFF714FE20684FF4EC
:109EA000A271FFF70FFE2368C3F83475C3F8382595
:109EB00016BB01221A602479242202FB0452526844
:109EC0000ABBD3F81011D3F84421D3F8240111436D
:109ED00002D10028F5D00A46242303FB04550023B1
:109EE000984218BF03209A42AB6118BF0F20F8BDFB
:109EF0001F61DA610126CCE7D3F8002242F020028C
:109F0000C3F80022D7E74FF40472C3F804230020FB
:109F1000EDE71020EBE700BFA43300202DE9F74365
:109F2000002406460F4600F5A0754FF48038A14680
:109F30002B688BB1D6F8043308FA04F21A420BD01E
:109F4000C5F800902B680193019BA30003F5A07353
:109F500098B2D7E9003198470134042C05F1040583
:109F6000E6D103B0BDE8F083F7B506792F4D0C2399
:109F70007343EF183C7A002C55D1EA504B687B6054
:109F8000477903682246A446D4B2A7423CD8CA788F
:109F900043F307345201002CC3F30733D2B23DDB45
:109FA000234F07EB040C8CF800230122640903F013
:109FB0001F0302FA03F347F8243003684A78D3F802
:109FC000040502F0030220F003000243C3F8042555
:109FD000D3F808058A7820F0030002F00302024358
:109FE000C3F80825D3F810050A7820F00F0102F015
:109FF0000F020A43C3F810250C2303FB0655012367
:10A000002B72002003B0F0BD940004F5A07401325F
:10A0100043F804C01C590194019CB5E7054C03F0BA
:10A020000F03E254C9E70820ECE700BFC833002063
:10A0300000E100E014ED00E0036801221A600279FB
:10A04000034B0C2101FB023302221A72704700BF3E
:10A05000C8330020036801221A610179024B0C20E9
:10A0600000FB01331A727047C833002038B503680B
:10A070001A0B43F30733002B04460CDB02F01F01DD
:10A080005B0901228A4020330D4941F82320BFF3A8
:10A090004F8FBFF36F8F23680025D3F80022C3F8DA
:10A0A00000524FF0FF32C3F808232046FFF7D2FFDB
:10A0B0002279044B0C2101FB02331D7238BD00BF15
:10A0C00000E100E0C833002003680122DA60704735
:10A0D00037B54FF4803400688C407BB18B0003F5BA
:10A0E000A0730025C550C3580193019BC0F80443D9
:10A0F00001F5A87140F8212003B030BDC0F8084335
:10A10000F6E770B4046840F20116D4F800528E40AD
:10A1100025EA0605C4F80052D4F800522B43C4F8CF
:10A1200000329DF80C3070BCFFF7D2BF8B0003F5F6
:10A13000A07302689BB20020D05082B0D358019324
:10A14000019B4FF4803303FA01F1C2F8041302B00B
:10A15000704702684FF4803303FA01F1C2F8081324
:10A160007047000001490248FFF7D8BEC8330020FD
:10A170000080004001490248FFF7D0BED4330020E0
:10A180000090004001490248FFF7C8BEE0330020BC
:10A1900000A000402DE9F74F4FF00009154D164F74
:10A1A00006464FF0040AC8465FFA89FB01240DF108
:10A1B000070004FA0BF48DF80780FDF785FA2C42AE
:10A1C00008D03B6814EA030201BF23433B6086F8D2
:10A1D00000B092469DF80700FDF79AFABAF1000F19
:10A1E00003D0A54309F10109DED1504603B0BDE813
:10A1F000F08F00BFFFFF0100EC330020012337B5D3
:10A2000003FA00F5C5F31003ABB10C4B0024C3F8FF
:10A2100008550DF107008DF80740FDF755FA084B7A
:10A22000186820EA050018609DF80700FDF770FA2D
:10A23000204603B030BD0720FBE700BF00F001401F
:10A24000EC33002010B5A1B19AB101238340C3F3D0
:10A25000100484B10A4C246823420ED0C00000F1DF
:10A26000804000F5F830C0F81015C0F81425002023
:10A2700010BD0E20FCE70720FAE70820F8E700BF32
:10A28000EC330020012202FA00F3580C400440B9DC
:10A290001BB1064A1268134205D0054AC2F80435BC
:10A2A0007047072070470820704700BFEC3300203C
:10A2B00000F00140012202FA00F3580C400440B9BA
:10A2C0001BB1064A1268134205D0054AC2F8083588
:10A2D0007047072070470820704700BFEC3300200C
:10A2E00000F00140034B187810B901221A70704732
:10A2F00085207047F03300200220FEF74DBC00009F
:10A300002DE9F04780460D46FEF766FC032804461B
:10A3100010D8012D10D0022D30D05DB91A48FCF7AD
:10A32000BBFF1A4B04EB440213449D78184B1B5D92
:10A33000AB4219D0BDE8F087144E00EB4003F21891
:10A34000F55C5378470053B1DFF84C900E484A460D
:10A350004FF48041FCF772FF08B989F80080274468
:10A360003E440B4BB2781A55002DE3D0094B1B68C5
:10A37000002BDFD02846BDE8F047184700EB40042B
:10A38000024804446578EFE7402B0020F3330020B7
:10A390000D34002008340020F13300200078022121
:10A3A000FFF7AEBF08B5094B1B7853B10020FEF78D
:10A3B000C9FB0120FEF7C6FBBDE808400320FEF7FD
:10A3C000C1BBBDE80840FEF7C9BB00BFF2330020A7
:10A3D000F8B57A4C237805461BB100232370FFF7AC
:10A3E000E1FF172D00F28780DFE805F00C17174218
:10A3F0005364757F878C878C949999999999C3C870
:10A40000D0D8E3E3FFF7CEFF6D48FCF745FF6D4B77
:10A41000002204461A702046F8BD0020FEF778FBA3
:10A42000F0B10020FEF78EFB022D0CBF4FF4E1646B
:10A430004FF47A64634B1D7000254FF400464FF4CF
:10A440007A7029464FF4FA620023E4FB060102F019
:10A450003FFA2A460146BDE8F8405948FCF7EEBEEF
:10A46000FEF764FB022D0CBFC8244FF4C874E1E76B
:10A470000020FEF74DFB40B10020FEF763FB4FF4D8
:10A480004874504B03221A70D6E7FEF74FFBC824DE
:10A49000F7E70020FEF73CFB38B10020FEF752FB47
:10A4A0004FF47A64474B0422EDE7FEF73FFB4FF48D
:10A4B000C874F7E70020FEF72BFB48B10020FEF739
:10A4C00041FB404B05221A7040F6CD410022C2E705
:10A4D000FEF72CFBF5E70020FEF75EFB394B06226A
:10A4E0001A70002240F26661B5E70020FEF71EFBFD
:10A4F000344B07221A7000248DE701202070FEF7EC
:10A500004BFBEEE701202070FEF746FB00224FF4E4
:10A510000051A0E7FEF731FB2A4B0C22EAE72A485C
:10A520002A4EFCF7B9FED5F1110504461CD0D8B966
:10A53000012D13D0C820454321464FF400474FF466
:10A540007A704FF4FA620023C5FB070102F0C0F9EC
:10A55000224601461C48FCF771FE04460220FEF725
:10A56000E5FA0123337056E70220FEF7EBFA0023E9
:10A57000F8E7FFF717FF134B1222BBE7FFF712FFB5
:10A580000020FEF7D3FA0F4B1322B3E7FFF70AFFC1
:10A590000120FEF7CBFA0B4B1422ABE7FFF702FFCB
:10A5A0000020FEF7C3FA0120FEF7C0FA054B152282
:10A5B000A0E7FEF7E2FA034B1D709CE7043400208D
:10A5C000602B00200C340020202B0020F2330020D0
:10A5D000044B1B68DB0703D5034B1878FFF7F8BE65
:10A5E000704700BF003400200C34002010B5002953
:10A5F00014BF03240024FEF701FB800000F1A040FB
:10A60000D0F8002722F44032C0F80027D0F80037F5
:10A6100043EA0443C0F80037002010BD032801D8E6
:10A62000FEF7CCBA00207047044B1B6813F00103FF
:10A6300001D0FFF7CDBE1846704700BF00340020A0
:10A6400038B51C4B18601C4B10F00204054619600D
:10A650001AD01A4B1A480E221A700F22DA701022E2
:10A660009A7111225A72042140F23332FCF722FC13
:10A67000044648B9FCF776FC044628B90146114A5D
:10A680001148FCF7C9FD0446EB0711D50120FEF780
:10A69000BBFA6CB921460D4A0D48FCF7BDFD0446D6
:10A6A00030B9BDE838400B4A0B480121FCF7B4BD76
:10A6B000204638BD0034002008340020F333002049
:10A6C00090DB02009DA30200B4DB0200D1A50200D2
:10A6D000B8DB0200F9A20200B0DB0200032811D8A7
:10A6E000012A0AD101290FD100F10E02D2B20D4B7D
:10A6F00000EB40001A54002070470129F7D00229CE
:10A7000004D049B1072070470022F8E7054B00EB61
:10A71000400018444270EEE7024B00EB4000184442
:10A720008270E8E7F3330020032802D80121FFF705
:10A730005DBF0620704708B5012202210020FFF707
:10A74000CDFF08B1072810D1072202210120FFF711
:10A75000C5FF08B1072808D100210A220846FFF7E3
:10A76000BDFF10B1072808BF002008BD0388102BCB
:10A7700010B502D0112B1ED010BD1A4C2168B1B9F2
:10A7800001220846FFF7AAFF08B1072824D10722B3
:10A7900002210120FFF7A2FF08B107281CD10422E3
:10A7A00002210020FFF79AFF08B1072814D123687F
:10A7B00001332360E0E70B4A1368013B1360002B71
:10A7C000DAD1FFF7B8FF0028D6D0074B1B68002B63
:10A7D000D2D0BDE810401847034B1B68002BE6D0D1
:10A7E0009847E4E7183400201434002008B500200E
:10A7F000FFF79AFF08B1062806D10120FFF794FF62
:10A8000010B1062808BF002008BD00000D4B10B590
:10A8100018600C4629B10120FFF700FF40B1022368
:10A820002370094B1B6853B9BDE81040FFF783BF85
:10A83000FFF7F4FE08B10B23F2E72070F1E70020E8
:10A8400010BD00BF143400201834002033DF7047DF
:10A8500076DF70477ADF70477CDF70477FDF7047B5
:10A860008FDF7047B1DF7047014B01221A707047CC
:10A8700094390020FCF78CBB08B50020FFF7D4FE0C
:10A8800008B1FCF785FBFFF7B1FF08B1FCF780FBCF
:10A89000FFF7DCFF18B1BDE80840FCF779BB08BD45
:10A8A0000388212B13B504463FD007D8112B2DD098
:10A8B000132B48D0102B0CD002B010BD522B4AD015
:10A8C000562B01D03B2BF7D1A0881321FFF7C0FFF7
:10A8D00015E0254B25482649C01AC008000440F061
:10A8E0000300FCF771F80720FFF79EFE08B1FCF7A4
:10A8F0004FFB204BA1882048198001F035FC00282F
:10A90000DAD002B0BDE81040FCF742BB164B174846
:10A910001A49C01AC008000440F00300FCF754F8BC
:10A92000144B4FF6FF721A80C6E7002380888DF81B
:10A93000043001A98DF80530FFF792FF0028BBD045
:10A94000FCF726FBB8E70B4800231A468521008850
:10A95000FFF784FFD3E7074800231A46194600880B
:10A96000FFF780FFCBE700BFCCD3020004D4020086
:10A97000BCDB0200AA2B002088390020C6DB0200C5
:10A9800008B503784BB9054B3B211888FFF760FFEA
:10A9900018B1BDE80840FCF7FBBA08BDAA2B00209F
:10A9A000072808B513D00A280DD0042819D10D4B5B
:10A9B00013211888FFF74CFF30F0080311D0BDE8D1
:10A9C0000840FCF7E5BABDE80840FFF755BF054B66
:10A9D0001A884FF6FF739A4203D1034800F065FFCF
:10A9E000EAE708BDAA2B00201835002008B548B1B9
:10A9F00003280BD10220FFF717FE38B1BDE808404D
:10AA0000FCF7C6BABDE80840FFF736BF08BD000036
:10AA1000F7B50378012B33D0022B31D073BB1B4C1D
:10AA20001B4D20782844FCF711FE23780133DBB25C
:10AA30001D44237015F8012C0A2A05D00D2A03D0D5
:10AA4000144A12889A4219D8012B15D9124D104E6A
:10AA5000124F2378ADF806300DF106022B883146EF
:10AA6000384601F0F9FC082806D01328F1D0052853
:10AA700002D008B1FCF78CFA0023237003B0F0BDBC
:10AA8000406803B0BDE8F040FCF782BA13350020FF
:10AA90001F340020A82B0020AA2B0020AC2B002064
:10AAA0002DE9F0410578064645BB154C154BDFF8FE
:10AAB0005880E41AE408240444F00104B28A954260
:10AAC0000AD33369134413F8013C0D2B16D10A2025
:10AAD000FCF7D2FD1128F9E73369585DFCF7CCFD8E
:10AAE000074648B11128F7D0024641462046FBF7F9
:10AAF0006FFF3846FCF74CFA0135DFE7BDE8F0811F
:10AB000004D40200CCD30200D3DB02000D4B4A88F0
:10AB10001B889A4214D10A8840F677239A420FD1B3
:10AB20008B88094A09480A49033B9BB21380094AAA
:10AB3000801AC00800041A4640F00300FBF751BF1A
:10AB4000704700BFAA2B0020A82B002004D40200CD
:10AB5000FEDB0200CCD30200FCF71ABA08B50849A4
:10AB6000084801F0E1F908B1FCF712FA0548F721AD
:10AB700001F0EEF918B1BDE80840FCF709BA08BDCC
:10AB80000DAB02004C390020F8B54FF0A0431B4C30
:10AB9000D3F8102512F4807F0FD10123237023787E
:10ABA000174D012B0FD12B7823B94FF0A0438022F2
:10ABB000C3F8082523782B70F8BDD3F81035DB05D2
:10ABC000EDD50023EAE7002BF4D12F78012FF1D146
:10ABD0000C4E0D484FF0A0438022C3F80C2533885B
:10ABE0000133338001F0A8FF3188084801F0A4FF49
:10ABF0000A2001F0C3FF064B1F70DBE7953A0020E7
:10AC0000143500201C3400201ADC020021DC020074
:10AC10001E340020FFF7B8BF30B54FF0A0430C2220
:10AC2000C3F820270322B1B0C3F81C27FEF736F87B
:10AC300008B1FCF7ADF9824D0020FEF753F80FCDB7
:10AC400005AC0FC495E803007E4B7F4A01934FF497
:10AC5000807384E80300CDE9032302937B4A072332
:10AC600001A905A8FCF79AFC08B1FCF791F94FF48B
:10AC700080410020FBF70AFD08B1FCF789F9FBF7DA
:10AC800043FCFCF797FA08B1FCF782F9704A714867
:10AC90000121FCF7C1FA08B1FCF77AF96E490320EB
:10ACA000FFF7CEFC08B1FCF773F905A90020FFF708
:10ACB000ADFD08B1FCF76CF9FDF74AFA08B1FCF7F5
:10ACC00067F901F045FC08B1FCF762F9002305A91A
:10ACD0000120059301F0CEFC08B1FCF759F905A855
:10ACE00001F088FD08B1FCF753F911235B498DF899
:10ACF00004300B2201A8FFF7AFFD08B1FCF748F9BB
:10AD00000023ADF818301023ADF814303C23ADF813
:10AD1000163005A84FF4C873ADF81A30FFF79AFD46
:10AD200008B1FCF735F9FFF719FF4D4B4D48059376
:10AD300005A901F007FA08B1FCF72AF94A4B4B487C
:10AD4000019301A901F00EFB08B1FCF721F9AC2237
:10AD5000002105A801F079FF02238DF814300523A6
:10AD60008DF8173001234021ADF860308DF8903018
:10AD700044F25063CDE927133D4A3E4B3E481992B9
:10AD800005A92E9300F0D5FB08B1FCF701F93A486C
:10AD9000012100F0CBFB14220DEB0200002101F099
:10ADA00054FF4FF4F0234FF4A032CDE906230323E0
:10ADB0008DF82030314B0A9305A8314B0B9300F0EE
:10ADC00093FE08B1FCF7E4F80022A4212D48FCF71B
:10ADD00035FA2D4801F0E2FE2C4B2D482D49C01AC2
:10ADE000C008000440F00300FBF7EEFD22480321F9
:10ADF00000F01CFC08B1FCF7CBF8274D0FCD05ACDB
:10AE00000FC42B682360254A2548012305A98DF826
:10AE10001C30FDF781FB08B1FCF7BAF82048204C44
:10AE2000FDF7C6FC632200212046FDF76BFB1128CD
:10AE3000F8D0FBF77DFC0028FBD1FDF79FF9F8E780
:10AE40006CDC020095390020963A002011AA02001D
:10AE500015AC020098DC0200A1A9020024DC02006B
:10AE600075A8020088390020A1AA0200AC2B00209E
:10AE7000802B0020EDA902001835002081A90200D6
:10AE800059AB0200882B002030DC0200CCD302003A
:10AE900004D4020041DC020084DC020069A8020044
:10AEA0009CDC02000369C26893429CBF80681B1847
:10AEB000013B981A70472DE9F843D0E90294054602
:10AEC000A9EB04084068904520440F46144404D977
:10AED00001F092FEEC60BDE8F8834246A4EB090461
:10AEE00001F08AFE6868224607EB0801F0E72DE9C9
:10AEF000F843C5680646894617464FF0000834698E
:10AF0000B3687068A54228BFE418013C621B5C1B53
:10AF1000BC4228BF3C46944228BF144649462844B8
:10AF2000224601F069FEB3682544AB4208BF002504
:10AF30003F1BA044A144F560E1D14046BDE8F88341
:10AF400010B5114C114AA2610223C4E90433104B1D
:10AF5000E361A2644FF400730E4A0F492362E26476
:10AF600000231022E01DA3626362E362A3656365B0
:10AF7000E365226501F09CFE0849204601F098FE39
:10AF80002023A37110BD00BF983B0020ACDC020061
:10AF9000203C0020103C0020B5DC0200B9DC02009F
:10AFA00070B5164B182400FB04451D4404FB003308
:10AFB0001646DC6A012C0ED0022C18D0E4B92846C3
:10AFC000FFF770FF864204D832462846FFF773FF2A
:10AFD0003446204670BD2846FFF764FF864234465B
:10AFE00028BF044622462846FFF765FFF1E72846BA
:10AFF000BDE87040FFF77BBF0024EAE7983B0020E4
:10B00000FFF79EBF6DDF704779DF70477DDF7047C8
:10B0100064DF70472DE9F04F85B000250E9CBDF828
:10B020003CB0B4F800A00191074690461E46A946E0
:10B030003A884A450DDC45B12388013BA3EB0A035E
:10B040009BB2FF2B3AD806F80A30002005B0BDE8C5
:10B05000F08F7A6852F82900039000220DF10B015D
:10B0600003A8FFF7D5FF0028F0D19DF80B2042453B
:10B0700021D12288002D14BF0020022002EB0801FC
:10B08000014459451ADC3DB9013292B2019B22803C
:10B09000B35422880132228022880DF10B01324400
:10B0A00003A8FFF7B5FF0028D0D121889DF80B2019
:10B0B0000A442280012509F10109B9E70C20C5E7FE
:10B0C0002DE9F341089FBDF824801546CDE90078AD
:10B0D000022204461E46FFF79DFF50B93346102258
:10B0E00029462046CDE9087802B0BDE8F041FFF7D7
:10B0F00091BF02B0BDE8F0812DE9F04F0023178821
:10B10000138090F82D3085B006460D4614465BB38B
:10B11000082F01D80C2028E102A8FFF773FF0028B0
:10B1200040F023812388DDF809100822EA5423889F
:10B1300001339BB21B222380EA54238801339BB244
:10B14000EA182380E950BDF80D30938023889DF8DC
:10B15000082006339BB212F0FE0218BF01222380A2
:10B16000EA54238801332380B378FBB12388043366
:10B17000BB42CFD802A8FFF747FF002840F0F58078
:10B1800023880322EA54238801339BB219222380A7
:10B19000EA542388BDF8082001339BB2E9182380C4
:10B1A000EA54120A4A70238802332380F2789AB153
:10B1B0002388D91CB942ADD80221E9542388013330
:10B1C0009BB201212380E95423880B449BB2238046
:10B1D000EA5423880B4423807268AAB12388D91CBF
:10B1E000B94297D8022192F90020E954238801330B
:10B1F0009BB20A212380E954238801339BB2238028
:10B20000EA542388013323803389002B40F0A18046
:10B21000338A5BB1CDE900472B460722032106F1B3
:10B220001000FFF74DFF002840F09F80338B5BB18B
:10B23000CDE900472B461522142106F11800FFF72F
:10B240003FFF002840F09180326A002A40F0908051
:10B25000D6F82480B8F1000F30D0B8F80430218837
:10B26000981C8A1C0244BA423FF654AFFE283FF6AF
:10B2700051AF03336B54238801339BB2FF222380E9
:10B28000EA54238801339BB22380B8F80020EA54A3
:10B29000E918120A4A702088023080B22080B8F87B
:10B2A00004205AB1D8F8081000296BD0284401F0C6
:10B2B000A3FC2388B8F804201344238096F82C308C
:10B2C000002B40F09880307800284ED03388012B36
:10B2D00058D0228802F1020CBC453FF61BAF012872
:10B2E00005D17378023313449F42FFF413AF023F3A
:10B2F000BF1ABFB202A905EB0C00ADF80870FFF74A
:10B3000085FE90BB3178BDF80830022900F0B98085
:10B3100072789A4202D39F4280F0B180012940F0B6
:10B32000B280974293B2C0F0AE80ADF808300821E9
:10B33000BDF80830FE2B3FF6EDAE22880133AB544A
:10B340002288013292B22280A95422881344238099
:10B350000BE0CDE900472B460622022106F108004A
:10B36000FFF7AEFE00283FF453AF05B0BDE8F08F05
:10B37000B4F800C00CF10603BB423FF6CBAE118817
:10B38000052901D80720F0E76FF4486E01EB0E03A2
:10B390009BB24FF27D3E7345F4D95388052BF1D90A
:10B3A0006FF44860181880B27045EBD94FF6FF7003
:10B3B000814201D09942E5D8052305F80C30238855
:10B3C00001339BB212212380E954238801339BB2BD
:10B3D00023801188E954E818090A41702388023350
:10B3E0009BB223805288EA54E918120A4A702388D3
:10B3F000023323802CE7B36A002BC3D04FF0000840
:10B400004FF00C0A4FF0160BB16A5FFA88F20AFB94
:10B4100002F201EB0209B9F80430981CFE283FF64D
:10B4200079AE208803332B54238801339BB22380C9
:10B4300005F803B0238801339BB223808A5AEA546B
:10B44000E918120A4A702088023080B22080B9F8C8
:10B4500004205AB1D9F80810002993D0284401F0EB
:10B46000CBFB2388B9F804201344238096F82C20C2
:10B4700008F101085FFA88F39A42C5D823E7092149
:10B4800056E79F42FBD2ADF8087050E730B5C8B11F
:10B49000F2B10024651C8D4206DA1588A54212D847
:10B4A00005196D789D420ED1A14211D9005D48B1B8
:10B4B000013880B230B10234A3B210FA84F4A14250
:10B4C00006DB138030BD055D01352C44A4B2E1E7F5
:10B4D0000020F7E713B513460022ADF806200DF162
:10B4E00006020446FFF7D2FF10B1BDF80630E0189F
:10B4F00002B010BD72DF704773DF704774DF7047B2
:10B5000038B5012204460D46B0F81414D0F81004E2
:10B51000FFF7E0FF00B1057004F13C0204F5826121
:10B5200004F15400BDE83840FFF7E4BF80F8301064
:10B530007047F8B504460F46002973D0002871D033
:10B5400091F87A301BB191F89830002B6CD1D7F874
:10B55000A030042B68D0D7F89C30042B64D04FF077
:10B56000000C84F802C007F178060FCE251D0FC528
:10B570000FCE0FC596E8070085E8070084F830C0B5
:10B58000D7F8A4306363D7F8A830A36304F58262C8
:10B590004FF6FF73C4F826C4A4F82434C4F820245A
:10B5A000C4F829C422780AB984F8543094F82430B5
:10B5B000002B14BFEE231F2304F15501C4F810140F
:10B5C000A4F8143404F214423846FFF795FD40BB4A
:10B5D00094F82430002B14BFEE231F2304F23121F2
:10B5E000C4F81814A4F81C3404F21C4207F13C00FF
:10B5F000FFF782FDA8B9A369A4F848304FF480731F
:10B600000125A4F8503063692064014684F83C5059
:10B61000636404F13C0204F15400FFF76BFF00B9CE
:10B620002570F8BD0E20FCE70720FAE7F8B507788B
:10B6300004460D46002F00F001810023C0F8263497
:10B64000C0F82934C388817000F226460BB1012965
:10B6500003D0E37943B1022D06D1636BABB1012274
:10B6600084F82D240820984704F2274304F22D4142
:10B6700013F8012B12B99942FAD117466B1E032B0E
:10B680004ED8DFE803F0050B0F1284F82D34EBE7FA
:10B69000A3791BB194F8243003B95FB9E3790BB1F6
:10B6A000002F3FD1237A002B3ED1637A002B0CBFB1
:10B6B00000250425636BA570002B37D0033D012DB9
:10B6C00034D8627992B394F82E247ABB84F830246B
:10B6D000012284F82F240720984704F13C05182202
:10B6E0000021284601F0B1FAE26A531E0121022B23
:10B6F00028BF0A4684F8512094F8242084F83C108E
:10B7000032B1A36A581E022828BF0B4684F8523073
:10B71000A378042B1CD8DFE803F0780D23365A00F9
:10B720000025C7E70225C5E70325C3E7002384F802
:10B730002F34D2E7012384F831300023C4E91063A9
:10B74000C4F82034022384F83C308023A4F8483025
:10B75000A378002B5DD1636B002B6BD1002068E0D8
:10B760000223002A84F8313014BF0723032384F80E
:10B770003C302369A4F848300023C4F82034E3683F
:10B7800026646364E4E763696364A369A4F84830EA
:10B7900012B1062384F83C306379B3B194F82E34A7
:10B7A0009BB994F8303483B1022384F850300421DB
:10B7B0002046FFF7A5FE0028CAD1052384F83130C2
:10B7C00004F58263C4F82034C2E70323F6E7E36993
:10B7D0006364236AA4F8483012B1062384F83C302D
:10B7E000637983B194F82E346BB994F8303453B143
:10B7F000022384F8503004212046FFF781FE002800
:10B80000A6D10623DAE70423D8E7002384F83130F1
:10B810009EE7D4F820142A4604F15400FFF76AFE8C
:10B8200038B994F8301094F85400FFF765FE0028FA
:10B8300091D0F8BD94F8310098478FE70820F8E7D9
:10B840000388112B10B50C460AD0262B1FD0102BC5
:10B8500005D1C37B012B02D18388A1F8243410BD0C
:10B860000022838881F82E24B1F824249A42F6D14C
:10B870000B79002BF3D101212046FFF7D7FE0028DA
:10B88000EDD0A36B002BEAD0BDE810401847037A37
:10B89000013B012BE3D8897805230131B1FBF3F398
:10B8A00003EB8303C91AC9B2E6E738B5044690F83A
:10B8B0005400FFF723FE012384F82E34002384F87C
:10B8C000303484F8503006212046FFF719FE054633
:10B8D00038B9A1782046FFF7A9FE10B1A36B03B1D8
:10B8E0009847284638BD75DF704776DF70477ADFA6
:10B8F00070477BDF70470000034B1A8882420CBF01
:10B9000018460020704700BF3C3E0020024B9B6958
:10B9100003B11847704700BF203E002073B585B2C1
:10B920002846FFF7E9FF044638B3174E027A337B07
:10B930009A420CD200F10A012846FFF7D4FFF0B179
:10B9400011281AD002B0BDE87040FFF7DFBF002316
:10B950000372337C43B13B212846FFF7C6FF30F02A
:10B96000080301D0FFF7D2FF736933B100228DF8CD
:10B970000420ADF8065001A8984702B070BD237AA4
:10B9800001332372F9E700BF203E002037B50B4694
:10B99000497A0F4A79B9D2E901141D7A0246002D7D
:10B9A00018BF21465868FBF749FC78B103B0BDE8E1
:10B9B0003040FFF7ABBF00211972536933B1012248
:10B9C000ADF806008DF8042001A8984703B030BDFB
:10B9D000203E00204B8802889A4212D842889A4220
:10B9E0000FD380888B8840F2F311884294BF021AEB
:10B9F000421A9A4205D80844984234BF00200120D8
:10BA000070470020704700000388122B70B5014674
:10BA100059D004D8102B1ED0112B44D070BD502B00
:10BA2000FCD12F4BC288DB899A42F7D1038A022BC3
:10BA3000F4D186883046FFF75FFF05460028EDD039
:10BA400001F1120000F07FF938BB6868FBF724FCB5
:10BA50000028E3D009E0C37B012BDFD14FF6FF7054
:10BA6000FFF74AFF054620B90420BDE87040FFF704
:10BA70004DBF1C4A8E880680002303721368C0F8ED
:10BA80000A305368C0F80E3010310A30FFF7A2FFB9
:10BA9000134B6872DB89002BC0D129463046BDE8C4
:10BAA0007040FFF773BF8088FFF726FF0446002829
:10BAB000B4D04068FBF7F0FB08B1FFF727FF4FF663
:10BAC000FF732380AAE786883046FFF715FF0546F7
:10BAD0000028A3D008310A30FFF77CFF6872DCE74A
